:08000000803102288731EB2F4B
:10079A001434003416302100970008002000110E8E
:1007AA00890C0139080071082000BC007008BB00E0
:1007BA00080071082000C0007008BF000800710816
:1007CA002000BE007008BD0008005A3021009900C0
:1007DA009801220096010800E03021009E009B014A
:1007EA009C0101309D000800F93020009B009A010D
:1007FA00911004309C0008003C3026009300F93028
:10080A0091009201CF3025009E0508003C30260059
:10081A009A00F930980099013F3025009E0508009A
:10082A009B30280096009501200093100E30280076
:10083A009700080021001508C03914389500FF30C8
:10084A0020009500FF30F0007008FC000B11080032
:10085A002000911E312C322C2D2CFD0123009D1CD1
:10086A00372C382C3A2C1D121D16190808001C307A
:10087A002500930095018030940001309600920182
:10088A000F3091001E08FC3901389E000800220032
:10089A008E100E110E108E110030F000F10085310D
:1008AA004D2584310030F000F10085316425843112
:1008BA00080022008E140E110E108E150030F00062
:1008CA00F10085314D2584318430F0000330F10088
:1008DA00853164258431080022008E100E110E1015
:1008EA008E150030F000F10085314D2584318430B9
:1008FA00F0000330F10085316425843108002200BC
:10090A008E100E150E148E118430F0000330F10093
:10091A0085314D2584310030F000F10085316425A0
:10092A008431080022008E100E110E148E118430AC
:10093A00F0000330F10085314D2584310030F0009C
:10094A00F100853164258431080022008E100E11D1
:10095A000E148E155830F0000230F10085314D2505
:10096A0084315830F0000230F10085316425843139
:10097A00080022008E108E110E148E15BC30F00065
:10098A000230F10085314D258431BC30F00002304F
:10099A00F100853164258431080022008E140E1579
:1009AA000E108E115830F0000230F10085314D25BD
:1009BA0084315830F0000230F100853164258431E9
:1009CA00080022008E140E150E108E11BC30F00095
:1009DA000230F10085314D258431BC30F0000230FF
:1009EA00F100853164258431080022008E100E1131
:1009FA000E108E155830F0000230F10085314D2569
:100A0A0084318430F0000330F1008531642584316B
:100A1A00080022008E100E150E148E118430F0007C
:100A2A000330F10085314D2585312C30F00001303D
:100A3A00F100853164258531080022008E100E11DF
:100A4A000E148E118430F0000330F10085314D25EB
:100A5A0085315830F0000230F10085316425853146
:100A6A0008007108F3007008F200F336F20CF3364E
:100A7A00F20C72082500910070080339F200043064
:100A8A00F235890B452D1308CF39720493000800FB
:100A9A007108F3007008F200F336F20CF336F20C28
:100AAA0072082600910070080339F2000430F2350A
:100ABA00890B5C2D1308CF39720493000800710862
:100ACA00F3007008F200F336F20CF336F20C7208F7
:100ADA002600980070080339F2000430F235890BB9
:100AEA00732D1A08CF3972049A00080022008C016B
:100AFA008D018E010B3021008C0070308D009030FA
:100B0A008E004C3023008E008D0113308C0024009F
:100B1A008D018C018E012100951722009D019E01F5
:100B2A000800F401F501701C9B2D9C2DA02D720864
:100B3A00F4077308F53D0130F235F30D890BA12D49
:100B4A000130F136F00C890BA62D70087104031DD3
:100B5A00AF2DB02D982D7508F1007408F00008002B
:100B6A00083023009F0090309D0004309E00193009
:100B7A009B009C010030F0000030F1008331DE233D
:100B8A0085310030F0000030F1008331E4238531F3
:100B9A000030F0000030F1008331D8238531FD01A7
:100BAA00080085317B2585318331EA2385318331FC
:100BBA00CF2385318331F123853184313C2485313A
:100BCA0084311524853184310B2485318431012403
:100BDA0085318331F923853184311F24853185316B
:100BEA00B52585310800200026082802F6002708C6
:100BFA00293BF70026082402F0002708253BF100CC
:100C0A002A082C02F2002B082D3BF3008531962589
:100C1A0085317108F9007008F80086311D26853182
:100C2A0020002A087607A4002B08773DA5000800B3
:100C3A002000A101F71F222E232E2A2EF609F709DA
:100C4A00F60A0319F70AA101A10AF91F2D2E2E2E61
:100C5A00372EF809F909F80A0319F90A0130FA00D6
:100C6A007A08A106A201A3017608770403193E2E89
:100C7A003F2E6E2EA001A00A4B2E0130F635F70D3D
:100C8A00890B432E0130FA007A08A007F71F4E2E6F
:100C9A004F2E422E0130A235A30D890B502E770814
:100CAA007902031D5A2E76087802031C5D2E5E2EE9
:100CBA00632E7608F8027708F93B22140130F736DA
:100CCA00F60C890B642E0130A002031D6D2E6E2EC8
:100CDA004F2E21080319722E732E782EA209A3090A
:100CEA00A20A0319A30A2308F7002208F60008003B
:100CFA008531D62586312B302000A4002530A50069
:100D0A000030A600A700FF30A8000330A9003D303C
:100D1A00AA000030AB001E30AC000030AD008531B7
:100D2A00F825863120002508AF002408AE002030BF
:100D3A00A4004E30A5000030A600A700FF30A8008E
:100D4A000330A9003D30AA000030AB001E30AC00D1
:100D5A000030AD008531F825863120002508B10024
:100D6A002408B0008331D3238631003A0319BE2EFA
:100D7A00BF2EE12F84312D248631573A031DC62E0A
:100D8A00C72EE12F01302000B4000030B500E12F5A
:100D9A008431BE2486316230FB006630890BD32E43
:100DAA00FB0BD32E20000D1EDB2EDC2E372F03303B
:100DBA00360637040319E22EE32E372F2F08F100E7
:100DCA002E08F00085313625863120008E1BEE2E46
:100DDA00EF2EFB2E0D1BF22EF32EFB2E0E1EF62EE1
:100DEA00F72EFB2E8431AA248631C22F8E1FFE2EA7
:100DFA00FF2E072F0D1B022F032F072F8431842468
:100E0A008631C22F8E1B0A2F0B2F132F0D1F0E2F69
:100E1A000F2F132F84315E248631C22F8E1B162F7B
:100E2A00172F232F0D1B1A2F1B2F232F0E1A1E2F9E
:100E3A001F2F232F8431D2248631C22F8E1F262FB3
:100E4A00272F332F0D1F2A2F2B2F332F0E1E2E2F16
:100E5A002F2F332F85310E258631C22F84314C2412
:100E6A008631C22F0D1E3A2F3B2F422F03303606F2
:100E7A003704031D412F422FC22F04303206330498
:100E8A000319482F492F502F3108F1003008F0007C
:100E9A008531362586318331D3238631003A0319C9
:100EAA00572F582FC22F84312D248631FB007B08FF
:100EBA002000BA0046303A06031D642F652F682FBA
:100ECA008431BE248631423020003A06031D6E2F3B
:100EDA006F2F722F8431E62486314C3020003A0677
:100EEA00031D782F792F7C2F84317124863152305B
:100EFA0020003A06031D822F832F862F84319724E0
:100F0A008631583020003A06031D8C2F8D2F912FE1
:100F1A000330B6000030B70053303A06031D962F4F
:100F2A00972F9A2F84314C248631563020003A0666
:100F3A00031DA02FA12FA52F0430B2000030B3004B
:100F4A0076303A06031DAA2FAB2FAF2F0530B20019
:100F5A000030B30047303A06031DB42FB52FB82F1F
:100F6A008431FA248631493020003A06031DBE2F07
:100F7A00BF2FC22F85312225863104302000320648
:100F8A003304031DC92FCA2FD12F2F08F1002E08B1
:100F9A00F0008531362586310530200032063304CB
:100FAA00031DD82FD92FD72E3108F1003008F000B1
:100FBA00853136258631D72E2000340335040319AE
:100FCA00E72FE82FCD2EB72E803102288331CD238B
:100FDA008731C1008331CE238731C200FD01B201BE
:100FEA00B301B401B501B601B701B801B901BA013B
:060FFA00200086317D2E6F
:020000040001F9
:08000000FF3FFF3FFF3FFF3F00
:04000E00E409FF3EC4
:00000001FF
