:060000000A128A11FC2F18
:100F34008316031305140910831603178801890106
:100F4400831203130910F1010518A92FAA2FB12F39
:100F54007108031DAE2FAF2FB12FF101F10A051C4B
:100F6400B42FB52FBE2F7103031DB92FBA2FBE2F77
:100F74000230F0007008F1000518C12FC22FCC2FE9
:100F840002307106031DC72FC82FCC2F0330F00089
:100F94007008F100051CCF2FD02FDA2F0330710613
:100FA400031DD52FD62FDA2F0430F0007008F1007E
:100FB4000518DD2FDE2FE52F04307106031DE32F06
:100FC400E42FE52FF10171030319E92FEA2FF02F24
:100FD40004307106031DEF2FF02FF12F091002309A
:100FE4007106031DF62FF72FA62F0914A62F0A1238
:0C0FF4008A11002883010A128A119A2F2A
:08400000FF3FFF3FFF3FFF3FC0
:04400E00D220FF3F7E
:00000001FF
