:08000000803102288731FD2F39
:100AF00022008E107508F1007408F00085319B25E6
:100B00008531080022008E147508F1007408F00089
:100B100085319B25853108007908F7007808F600B3
:100B20008631D52685310130F0000030F100853165
:100B30009B2585310800F201F301F201F301A72D95
:100B400022000E140E100130F2070030F33D710840
:100B50007302031DAD2D70087202031CB02DB12D60
:100B6000A02D0800F201F301F201F301BE2D2200D5
:100B70000E150E110130F2070030F33D71087302BB
:100B8000031DC42D70087202031CC72DC82DB72D7C
:100B900008007A08F7007908F6008631D5268531F5
:100BA0000130F0000030F1008531B22585311E3072
:100BB000FB003730890BDA2DFB0BDA2D0000080023
:100BC00021000E108E100E1122000E108E100E112C
:100BD0002000A001A0010A30F0000030F100200840
:100BE000FC00FD017C08F2007D08F300863123261D
:100BF00085317108F9007008F80085318C25853140
:100C00000A30F0000030F10020002008FC00FD0157
:100C10007C08F2007D08F300863176268531710864
:100C2000FA007008F9008531C92585310130FC00D2
:100C30007C082000A00764302002031C202E212EF7
:100C4000EB2D80310228F601F31F272E282E2F2EA0
:100C5000F209F309F20A0319F30AF601F60AF11F81
:100C6000322E332E382EF009F109F00A0319F10A59
:100C70007008710403193D2E3E2E672EF501F50A0A
:100C80004A2E0130F035F10D890B422E0130F4006F
:100C90007408F507F11F4D2E4E2E412E7108730278
:100CA000031D542E70087202031C572E582E5C2E02
:100CB0007008F2027108F33B0130F136F00C890B39
:100CC0005D2E0130F502031D662E672E4E2E76082E
:100CD00003196B2E6C2E712EF209F309F20A031917
:100CE000F30A7308F1007208F0000800F601F11F22
:100CF0007A2E7B2E822EF009F109F00A0319F10AEF
:100D0000F601F60AF31F852E862E8F2EF209F309BF
:100D1000F20A0319F30A0130F4007408F606F70129
:100D2000F801700871040319962E972EC62EF5014E
:100D3000F50AA32E0130F035F10D890B9B2E013001
:100D4000F4007408F507F11FA62EA72E9A2E013085
:100D5000F735F80D890BA82E71087302031DB22E0A
:100D600070087202031CB52EB62EBB2E7008F2025C
:100D70007108F33B77140130F136F00C890BBC2E6F
:100D80000130F502031DC52EC62EA72E76080319C5
:100D9000CA2ECB2ED02EF709F809F70A0319F80A44
:100DA0007808F1007708F000080076087704031D42
:100DB000DA2EDB2EEA2E0130F4000030F50085310A
:100DC000822586310630F4000030F5008531782523
:100DD0008631FC2F76037704031DEF2EF02E062FAD
:100DE0000430F4000030F500853182258631023070
:100DF000F4000030F5008531782586310130F400AB
:100E00000030F500853182258631FC2F02307606D0
:100E10007704031D0C2F0D2F312F0130F40000300B
:100E2000F5008531782586310130F4000030F50079
:100E30008531822586310230F4000030F50085319D
:100E4000782586310130F4000030F50085318225A7
:100E500086310230F4000030F50085317825863186
:100E6000FC2F033076067704031D372F382F4E2FC3
:100E70000130F4000030F5008531782586310230EC
:100E8000F4000030F5008531822586310430F4000D
:100E90000030F500853178258631FC2F0430760648
:100EA0007704031D542F552F722F0230F4000030A9
:100EB000F5008531782586310230F4000030F500E8
:100EC0008531822586310230F4000030F50085310D
:100ED000782586310130F4000030F5008531822517
:100EE0008631FC2F053076067704031D782F792F85
:100EF0009D2F0230F4000030F500853178258631D1
:100F00000130F4000030F500853182258631023051
:100F1000F4000030F5008531782586310130F40089
:100F20000030F5008531822586310130F400003033
:100F3000F500853178258631FC2F0630760677045A
:100F4000031DA32FA42FBA2F0530F4000030F500A5
:100F50008531782586310130F4000030F500853187
:100F6000822586310130F4000030F5008531782586
:100F70008631FC2F073076067704031DC02FC12F62
:100F8000D02F0430F4000030F50085318225863101
:100F90000330F4000030F500853178258631FC2FD0
:100FA000083076067704031DD62FD72FDF2F0730A2
:100FB000F4000030F500853178258631FC2F0930AA
:100FC00076067704031DE52FE62FFC2F0230F40090
:100FD0000030F5008531782586310130F40000308D
:100FE000F5008531822586310430F4000030F500AB
:100FF000853178258631FC2F080020008531E02DD1
:020000040001F9
:08000000FF3FFF3FFF3FFF3F00
:04000E00A409FF1D25
:00000001FF
