:060000000A128A11FC2F18
:100EB4008316031387018801013085008600831699
:100EC40003178901880183120313880187018312A0
:100ED400031305186E2F6F2FA92F88018701803007
:100EE400F0007008F4000230F0007008F500750896
:100EF4008312031388004130F100EE30F000F00B50
:100F0400812FF10B812F00000310F50C7508031DD0
:100F14008C2F8D2F792F8312031388017408031DDE
:100F2400942F952F962FA62F7408831203138700EE
:100F34004130F100EE30F000F00B9E2FF10B9E2FAC
:100F440000000310F40C902F83120313870106187A
:100F5400AC2FAD2F692F880187014130F100EE30AD
:100F6400F000F00BB32FF10BB32F00008030F00032
:100F74007008F2000230F0007008F3000230F00054
:100F84007008F6007608F0007008F3047308831202
:100F9400031388004130F100EE30F000F00BD02F45
:100FA400F10BD02F00000310F60C7608031DDB2F85
:100FB400DC2FC42F8030F0007008F6007608F000B3
:100FC4007008F20472088312031387004130F100A1
:100FD400EE30F000F00BEC2FF10BEC2F00000310BF
:100FE400F60C7608031DF72FF82FE02F692F0A124D
:0C0FF4008A11002883010A128A115A2F6A
:08400000FF3FFF3FFF3FFF3FC0
:04400E00F420FF3F5C
:00000001FF
