:08000000803102288731FD2F39
:1008620022008E107508F1007408F00084315424BF
:100872008431080022008E147508F1007408F0001B
:1008820084315424843108007908F7007808F6008E
:100892008631D52684310130F0000030F1008431F8
:1008A200542484310800F201F301F201F301602CB7
:1008B20022000E140E100130F2070030F33D7108D1
:1008C2007302031D662C70087202031C692C6A2CC9
:1008D200592C0800F201F301F201F301772C2200F6
:1008E2000E150E110130F2070030F33D710873024C
:1008F200031D7D2C70087202031C802C812C702C2D
:1009020008007908F7007808F6008631D526843188
:100912000130F0000030F10084316B248431173053
:10092200FA00B930890B932CFA0B932C00000800C3
:100932007008710403199E2C9F2CC82CF501F50A2E
:10094200AB2C0130F035F10D890BA32C0130F400F2
:100952007408F507F11FAE2CAF2CA22C710873029C
:10096200031DB52C70087202031CB82CB92CBD2CC7
:100972007008F2027108F33B0130F136F00C890B7A
:10098200BE2C0130F502031DC72CC82CAF2C7308F6
:10099200F1007208F0000800FB01FC017608770400
:1009A2000319D42CD52C042DFD01FD0AE12C0130B4
:1009B200F635F70D890BD92C0130FA007A08FD07BC
:1009C200F71FE42CE52CD82C0130FB35FC0D890BEC
:1009D200E62C77087902031DF02C76087802031CB6
:1009E200F32CF42CF92C7608F8027708F93B7B14E7
:1009F2000130F736F60C890BFA2C0130FD02031D8B
:100A0200032D042DE52C7C08F7007B08F600080076
:100A1200F601F31F0D2D0E2D152DF209F309F20A21
:100A22000319F30AF601F60AF11F182D192D1E2DCE
:100A3200F009F109F00A0319F10A700871040319A7
:100A4200232D242D4D2DF501F50A302D0130F035E1
:100A5200F10D890B282D0130F4007408F507F11F00
:100A6200332D342D272D71087302031D3A2D700882
:100A72007202031C3D2D3E2D422D7008F2027108B8
:100A8200F33B0130F136F00C890B432D0130F502B6
:100A9200031D4C2D4D2D342D76080319512D522D49
:100AA200572DF209F309F20A0319F30A7308F10048
:100AB2007208F00008006430F6000030F7002000F1
:100AC2002108F9002008F8008431CD248531770807
:100AD2002000A3007608A2000A30F6000030F700DA
:100AE2002108F3002008F2006430F0000030F10029
:100AF2008431992485317108F9007008F800843135
:100B0200CD24853177082000A5007608A4002108AD
:100B1200F3002008F2006430F0000030F10084316C
:100B22009924853171082000A9007008A8000A30B4
:100B3200F0000030F1002908F3002808F2008431A7
:100B42009924853171082000A7007008A6000A3098
:100B5200F0000030F1002708F3002608F20085318A
:100B6200092585317108F9007008F800843145249F
:100B720085310A30F0000030F10020002508F30032
:100B82002408F2008531092585317108F9007008C1
:100B9200F8008431452485310A30F0000030F1003C
:100BA20020002308F3002208F2008531092585314F
:100BB2007108F9007008F800843182248531080038
:100BC20021000E108E100E110C148C140C150C1228
:100BD2000D168E1523008C018D018E0122000E1040
:100BE2008E100E112000AF01B001AB01AC01AD01BE
:100BF200AE0120000C1CFE2DFF2DB92E8C1C022EE6
:100C0200032E592E8E19062E072E0E2E2F08031D87
:100C12000B2E0C2E0E2EAF01AF0A8E1D112E122E90
:100C22001B2E2F03031D162E172E1B2E0230AA0079
:100C32002A08AF008E191E2E1F2E292E02302F06D3
:100C4200031D242E252E292E0330AA002A08AF00C8
:100C520003302F06031D2E2E2F2E412E2B08013E70
:100C6200AB0000302C3DAC00AF0103302C02E83069
:100C720003192B02031C3E2E3F2E412EAB01AC0169
:100C820022000C1620002C08A1002B08A0008531A0
:100C92005C25853120000D1E4F2E502E592EAB01A2
:100CA200AC01AF010030A000A10085315C25853187
:100CB20020000C1D5D2E5E2EB92E8E19612E622E25
:100CC200692E3008031D662E672E692EB001B00A08
:100CD2008E1D6C2E6D2E762E3003031D712E722EFC
:100CE200762E0230AA002A08B0008E19792E7A2EAA
:100CF200842E02303006031D7F2E802E842E033078
:100D0200AA002A08B00003303006031D892E8A2E5D
:100D1200912E2D08013EAD0000302E3DAE00B001F7
:100D220000302E020A3003192D020318992E9A2E32
:100D32009D2E22000C16A32E0A30AD000030AE000C
:100D420022000C1220002E08A1002D08A0008531DF
:100D52005C25853120000D1EAF2EB02EB92EAD01BF
:100D6200AE01B0010030A000A10085315C258531C3
:100D720020000C18BD2EBE2EFA2D0C1DC12EC22E27
:100D8200FA2D22000C120730F4000030F5008431F5
:100D92003B2485310130F0000030F10084316B24B6
:100DA2008531FA2D8031022876087704031DDA2E68
:100DB200DB2EEA2E0130F4000030F50084313B24B2
:100DC20086310630F4000030F5008431312486315A
:100DD200FC2F76037704031DEF2EF02E062F04302E
:100DE200F4000030F50084313B2486310230F400F7
:100DF2000030F5008431312486310130F4000030B6
:100E0200F50084313B248631FC2F023076067704CC
:100E1200031D0C2F0D2F312F0130F4000030F5008F
:100E22008431312486310130F4000030F500843100
:100E32003B2486310230F4000030F5008431312445
:100E420086310130F4000030F50084313B248631D4
:100E52000230F4000030F500843131248631FC2F59
:100E6200033076067704031D372F382F4E2F0130BB
:100E7200F4000030F5008431312486310230F40070
:100E82000030F50084313B2486310430F400003018
:100E9200F500843131248631FC2F04307606770444
:100EA200031D542F552F722F0230F4000030F5002D
:100EB2008431312486310230F4000030F50084316F
:100EC2003B2486310230F4000030F50084313124B5
:100ED20086310130F4000030F50084313B24863144
:100EE200FC2F053076067704031D782F792F9D2F6E
:100EF2000230F4000030F5008431312486310130B3
:100F0200F4000030F50084313B2486310230F400D5
:100F12000030F5008431312486310130F400003094
:100F2200F50084313B2486310130F4000030F500B5
:100F3200843131248631FC2F063076067704031D76
:100F4200A32FA42FBA2F0530F4000030F50084310E
:100F5200312486310130F4000030F50084313B2425
:100F620086310130F4000030F500843131248631BD
:100F7200FC2F073076067704031DC02FC12FD02F18
:100F82000430F4000030F50084313B248631033014
:100F9200F4000030F500843131248631FC2F083012
:100FA20076067704031DD62FD72FDF2F0730F400E4
:100FB2000030F500843131248631FC2F0930760669
:100FC2007704031DE52FE62FFC2F0230F4000030DA
:100FD200F5008431312486310130F4000030F5000F
:100FE20084313B2486310430F4000030F500843132
:0E0FF20031248631FC2F080020008531E12DCE
:020000040001F9
:08000000FF3FFF3FFF3FFF3F00
:04000E00A409FF1D25
:00000001FF
