:08000000803102288731D92F5D
:10000E0008000310720D730DF4007408FA007A08DC
:10001E00031D122813281C280030F3000030F200B4
:10002E000030F1000030F0007B287008F4007108F9
:10003E00F5007208F6007308F7001F30F736F60C5D
:10004E00F50CF40C890B25287408F8007808F900D3
:10005E00F217FF30F005FF30F105FF30F2050030EA
:10006E00F3059630FA02FA1F3D283E2856287A08E4
:10007E00803A973E03184428452846281328013015
:10008E00F336F20CF10CF00C890B47280130F4001A
:10009E007408FA07031D5428552846286B2820306B
:1000AE007A02031C5B285C28662813280130F03581
:1000BE00F10DF20DF30D890B5E280130FA027A086C
:1000CE00031D6A286B285D28790803196F2870288C
:1000DE007B28F009F109F209F309F00A0319F10A74
:1000EE000319F20A0319F30A08002100B600B4013D
:1000FE00B50120006B082100CA0020006A0821000B
:10010E00C900200069082100C800200068082100ED
:10011E00C7004A082000BD00210049082000BC008D
:10012E00210048082000BB00210047082000BA002B
:10013E000030C1000030C0000030BF000030BE00F3
:10014E009231D12280310318AD28AE28C728013054
:10015E002100B4000030B5004A08F3004908F2004F
:10016E004808F1004708F0009D316C258031730876
:10017E002100CA007208C9007108C8007008C700C3
:10018E002100CD01CE0122006A082100BA00220012
:10019E0069082100B90034083504031DD728D82872
:1001AE00DC286E1DDB28DC28FA2834083504031DF4
:1001BE00E128E228E7282B30A0000030A100EB2830
:1001CE002D30A0000030A10020082000ED006D08A9
:1001DE002400A00001302100CD070030CE3DFF30BD
:1001EE00B907FF30BA3D4A08F3004908F200480843
:1001FE00F1004708F00092315222803170037104F1
:10020E00031D0A290B294E2920006C08BF3EED0064
:10021E00FF3003180030EE0000306E021A30031962
:10022E006D0203181B291C2927291B30F00098305A
:10023E00F10021004D08203E9E31C3268031312928
:10024E002330F0009830F10021004D08203E9E3101
:10025E00C3268031FD302100B907FF30BA3D203072
:10026E002000ED006D08A40021003A082000A60031
:10027E00210039082000A5002100360891313921CE
:10028E00803120002508E9002408E800D82F21003D
:10029E004A08F3004908F2004808F1004708F00048
:1002AE0092315222803170087104031D5F2960293A
:1002BE00A32920006C08BF3EED00FF30031800306C
:1002CE00EE0000306E021A3003196D020318702909
:1002DE0071297C291F30F0009830F10021004D0863
:1002EE00203E9E31C326803186292730F00098307B
:1002FE00F10021004D08203E9E31C3268031FD3095
:10030E002100B907FF30BA3D20302000ED006D0806
:10031E00A40021003A082000A60021003908200080
:10032E00A5002100360891313921803120002508A1
:10033E00E9002408E800D82F3F302100D200803099
:10034E00D1000030D0000030CF00CB01CC014A08E4
:10035E00F3004908F2004808F1004708F0000030A9
:10036E00F7000030F6000030F5000030F4009F3149
:10037E005F2780310318C429C529892AF6294130FF
:10038E002000A3002030A2000030A1000030A00009
:10039E00210052082000A700210051082000A600CD
:1003AE00210050082000A50021004F082000A400C5
:1003BE008B3121238031200023082100D200200020
:1003CE0022082100D100200021082100D0002000A9
:1003DE0020082100CF000130CB070030CC3D21009A
:1003EE004A082000BD00210049082000BC00210061
:1003FE0048082000BB00210047082000BA00413009
:10040E00A3002030A2000030A1000030A000210087
:10041E0052082000A700210051082000A60021004C
:10042E0050082000A50021004F082000A4008B31A9
:10043E002123803120002308C1002208C00021089A
:10044E00BF002008BE009231D12280310318302A1D
:10045E00312AC629622A41302000BD002030BC005E
:10046E000030BB000030BA00210052082000C1004D
:10047E00210051082000C000210050082000BF00BC
:10048E0021004F082000BE0096314C2680312000FE
:10049E003D082100D20020003C082100D1002000A0
:1004AE003B082100D00020003A082100CF00FF3089
:1004BE00CB07FF30CC3D21004A082000BD002100B3
:1004CE0049082000BC00210048082000BB00210084
:1004DE0047082000BA00210052082000C100210068
:1004EE0051082000C000210050082000BF0021004C
:1004FE004F082000BE009231D1228031031C882A81
:10050E00892A322A20006C08ED00EE016D08F600F3
:10051E006E08F7009D318725803176082000EF00A8
:10052E006F082100BC003C082000ED006D08210082
:10053E00BB0067303C06031DA52AA62ACF2A22003F
:10054E006B086C04031DAC2AAD2AB12A0130EB00F6
:10055E000030EC006C08803A2000ED0080306D0217
:10056E00031DBC2A013022006B020318BF2AC02AC9
:10057E00C62A06302100B7000030B800D52A220066
:10058E006C082100B80022006B082100B700D52AA4
:10059E002200EC1BD32AD42AC02AC62A67303C0676
:1005AE00031DDA2ADB2A132B4C08803A2000ED00BB
:1005BE007F306D02031DE62AFC3021004B02031C26
:1005CE00E92AEA2A0D2B21003708FF3E2000ED0014
:1005DE00FF302100383D2000EE006E08803AEF001B
:1005EE0021004C08803A20006F02031D022B2100CF
:1005FE004B0820006D02031C052B062B0D2B6630BD
:10060E002000ED006D082100BB00132B653020008B
:10061E00ED006D082100BB003808AD003708AC00B6
:10062E0067303C06031D1C2B1D2B272B66303B060B
:10063E00031D222B232B2B2BCC1F262B272B2B2BB7
:10064E000130AC070030AD3D66303B06031D302B4C
:10065E00312B492BCC1F342B352B3F2B3F30D20067
:10066E008030D1000030D0000030CF00CB01CC0163
:10067E0067303C060319442B452B492B4B08AC071E
:10068E004C08AD3DC501C6014A08C0004908BF006F
:10069E004808BE004708BD005208B1005108B0001E
:1006AE005008AF004F08AE00292C21005208200040
:1006BE00BD00210051082000BC0021005008200080
:1006CE00BB0021004F082000BA0021004008200086
:1006DE00C10021003F082000C00021003E0820007C
:1006EE00BF0021003D082000BE0096314C2680310F
:1006FE0020003D08D7003C08D6003B08D5003A083C
:10070E00D4009331F0238031200057082100C4001B
:10071E00200056082100C300200055082100C20009
:10072E00200054082100C1004408F3004308F200E1
:10073E004208F1004108F000803108208031710834
:10074E002100B3007008B20044082000A700210069
:10075E0043082000A600210042082000A500210029
:10076E0041082000A400210052082000A30021000F
:10077E0051082000A200210050082000A1002100F5
:10078E004F082000A0008B31212380312000230848
:10079E00BD002208BC002108BB002008BA002100C1
:1007AE0040082000C10021003F082000C0002100A9
:1007BE003E082000BF0021003D082000BE009E31F3
:1007CE008226803120003D082100C00020003C0818
:1007DE002100BF0020003B082100BE0020003A0887
:1007EE002100BD0041302000BD002030BC00003093
:1007FE00BB000030BA00210052082000C1002100C9
:10080E0051082000C000210050082000BF00210028
:10081E004F082000BE0096314C26803120003D0846
:10082E002100D20020003C082100D10020003B080E
:10083E002100D00020003A082100CF000130C5076A
:10084E000030C63D4608803A2000ED0021002D08FC
:10085E00803A20006D02031D372C21002C08450222
:10086E00031C3A2C3B2C5C2B40302000A300A03004
:10087E00A2000030A1000030A0002100520820008C
:10088E00A700210051082000A600210050082000DA
:10089E00A50021004F082000A4008B3121238031B8
:1008AE00200023082100C400200022082100C300DC
:1008BE00200021082100C200200020082100C100D4
:1008CE0040082000BD0021003F082000BC00210090
:1008DE003E082000BB0021003D082000BA00210088
:1008EE0044082000C100210043082000C000210060
:1008FE0042082000BF00210041082000BE009231B6
:10090E00D122803103188C2C8D2C972C0030210095
:10091E00C4000030C3000030C2000030C100BC2C47
:10092E0021004008F3003F08F2003E08F1003D08A8
:10093E00F0004408F7004308F6004208F5004108AD
:10094E00F4009F315F278031031CAE2CAF2CBC2CE2
:10095E0021003218B32CB42CBC2C0030C400003053
:10096E00C3000030C2000030C10021004408F30073
:10097E004308F2004208F1004108F0004A08F7006F
:10098E004908F6004808F5004708F4008831E220CF
:10099E00803173082100C0007208BF007108BE00CC
:1009AE007008BD0040082000BD0021003F08200057
:1009BE00BC0021003E082000BB0021003D082000A5
:1009CE00BA004130A3002030A2000030A100003058
:1009DE00A000210031082000A700210030082000CF
:1009EE00A60021002F082000A50021002E082000BF
:1009FE00A4008B312123803120002308C10022085E
:100A0E00C0002108BF002008BE009231D1228031E3
:100A1E00031C122D132D4E2D01302100CB0700305B
:100A2E00CC3D41302000A3002030A2000030A100B8
:100A3E000030A000210031082000A700210030085E
:100A4E002000A60021002F082000A50021002E085E
:100A5E002000A4008B3121238031200023082100A7
:100A6E00B100200022082100B00020002108210042
:100A7E00AF00200020082100AE0066303B06031DAB
:100A8E00492D4A2D4E2D0130AC070030AD3D2100D1
:100A9E003108D2003008D1002F08D0002E08CF0028
:100AAE0065303B0603195C2D5D2D622D4C08AB00A5
:100ABE004B08AA00642DAA01AB01A801A901A60149
:100ACE00A701C501C601AE2E210052082000BD00AF
:100ADE00210051082000BC00210050082000BB005E
:100AEE0021004F082000BA00210040082000C1005C
:100AFE0021003F082000C00021003E082000BF005A
:100B0E0021003D082000BE0096314C268031200089
:100B1E003D08D7003C08D6003B08D5003A08D40063
:100B2E009331F0238031200057082100C4002000AB
:100B3E0056082100C300200055082100C2002000E5
:100B4E0054082100C1004408F3004308F200420893
:100B5E00F1004108F0008031082080317108210039
:100B6E00B3007008B2006E1ABD2DBE2DD32D320803
:100B7E003304031DC32DC42DD32D67303C06031D36
:100B8E00C92DCA2DD32DAB1FCD2DCE2DD32D01307A
:100B9E00A6070030A73D2C2E28082904031DD82DAA
:100BAE00D92D102EAB1FDC2DDD2D102E2E3020005A
:100BBE00ED0021004D08203E860002308700200007
:100BCE006D08810001302100CD070030CE3DFF3091
:100BDE00B907FF30BA3D0130A8000030A900102E31
:100BEE0030302000ED0021004D08203E86000230FE
:100BFE00870020006D08810001302100CD070030F4
:100C0E00CE3DFF30B907FF30BA3DFF30A607FF30AB
:100C1E00A73D26082704031D152E162EF72D320884
:100C2E00303E2000ED0021004D08203E86000230AF
:100C3E00870020006D08810001302100CD070030B3
:100C4E00CE3DFF30B907FF30BA3D44082000A70063
:100C5E00210043082000A600210042082000A50024
:100C6E00210041082000A400210052082000A3000A
:100C7E00210051082000A200210050082000A100F0
:100C8E0021004F082000A0008B312123803120004D
:100C9E002308BD002208BC002108BB002008BA00B2
:100CAE00210040082000C10021003F082000C000A4
:100CBE0021003E082000BF0021003D082000BE009C
:100CCE009E318226803120003D082100C000200088
:100CDE003C082100BF0020003B082100BE00200080
:100CEE003A082100BD0041302000BD002030BC007C
:100CFE000030BB000030BA00210052082000C100B5
:100D0E00210051082000C000210050082000BF0023
:100D1E0021004F082000BE0096314C268031200065
:100D2E003D082100D20020003C082100D100200007
:100D3E003B082100D00020003A082100CF00FF30F0
:100D4E00AA07FF30AB3D0130C5070030C63D46084F
:100D5E00803A2000ED0021002D08803A20006D021F
:100D6E00031DBC2E21002C0845020318BF2EC02ED9
:100D7E00D02E21004E08803A2000ED0080306D020A
:100D8E00031DCC2E4B3021004D02031CCF2ED02E36
:100D9E006B2D210028082904031DD62ED72EEC2EEC
:100DAE006E1EDA2EDB2EEC2E2E302000ED002100F2
:100DBE004D08203E86000230870020006D0881001D
:100DCE0001302100CD070030CE3D4D08203E86007B
:100DDE0002308700810165303B06031DF72EF82E89
:100DEE00C12F4F30C5000030C6004508203E86009A
:100DFE00023087008101B401B501CC1F072F082FE7
:100E0E00112F0130B4000030B500CB09CC09CB0A4C
:100E1E000319CC0A0230B7000030B8004C2FFF3057
:100E2E002100C507FF30C63D0A30F0000030F1004A
:100E3E004C08F3004B08F2009F31AD27803170084B
:100E4E00303E2000ED0021004508203E8600023095
:100E5E00870020006D0881000A30F0000030F1009C
:100E6E0021004C08F3004B08F2009131F321803140
:100E7E0071082100CC007008CB00FF30B707FF309F
:100E8E00B83DFF30B907FF30BA3D4B084C04031D87
:100E9E00512F522F162F3808803A2000ED00803047
:100EAE006D02031D5D2F0130210037020318602FE4
:100EBE00612F162FFF302100C507FF30C63D3408C5
:100ECE003504031D6B2F6C2F712F2B30A2000030B9
:100EDE00A300752F2D30A2000030A30022082000A1
:100EEE00ED0021004508203E8600023087002000DC
:100EFE006D088100FF302100B907FF30BA3DFF3089
:100F0E00C507FF30C63D20006C08BF3EED00FF3028
:100F1E0003180030EE0000306E021A3003196D0215
:100F2E00031C9A2F9B2FA12F65302100A4000030A7
:100F3E00A500A62F45302100A4000030A5002408EE
:100F4E002000ED0021004508203E8600023087007B
:100F5E0020006D088100FF302100B907FF30BA3D37
:100F6E004508203EF0000230F1004D08203E9E3133
:100F7E00C326803120302000ED006D08A400210032
:100F8E003A082000A600210039082000A500210003
:100F9E00360891313921803120002508E9002408D6
:100FAE00E8000800773084009D308500A030860070
:100FBE000130870010309D31662587312100EE010A
:100FCE00EF0163308400013085000A309D316025C9
:100FDE0087312300B001B101B201B301203084008A
:100FEE000230850050309D316025873120009431CC
:020FFE00DB2CEA
:10100A002100EA006608EC006508EB002200E7010F
:10101A00E8012328EB30E8006808D3006708E900F4
:10102A006908D4006A088D3178258831210053086F
:10103A002200E707210054082200E83D21006B083E
:10104A0084006C0885001200031D2C282D280F2807
:10105A00220068082100E600220067082100E50056
:10106A000800F800780803193B283C285028F31F89
:10107A003F28402850287009FA007109FB007209BC
:10108A00FC007309FD00FA0A0319FB0A0319FC0A9A
:10109A000319FD0A58287308FD007208FC0071083C
:1010AA00FB007008FA007308720471047004031DCF
:1010BA005F28602869280030F3000030F200003011
:1010CA00F1000030F000E1289630F4007408F900CD
:1010DA0079280130F4007408F9070130FD36FC0C58
:1010EA00FB0CFA0C890B7328FE307D05031D7E2844
:1010FA007F286E2893280130F4007408F90701301C
:10110A00FA070030FB3D0030FC3D0030FD3D013068
:10111A00FD36FC0CFB0CFA0C890B8D28FF307D0583
:10112A00031D982899288028A3280130F902013044
:10113A00FA35FB0DFC0DFD0D890B9D28FC1BA6281D
:10114A00A728AD28023079020318AC28AD289A28BE
:10115A007918B028B128B928FF30FA05FF30FB0505
:10116A007F30FC05FF30FD050310F90C7908F40007
:10117A00F501F601F7011830F435F50DF60DF70D06
:10118A00890BC1287408FA047508FB047608FC0464
:10119A007708FD0478080319D328D428D928F31F1F
:1011AA00D728D828D928FD177D08F3007C08F20033
:1011BA007B08F1007A08F0000800730880392000E3
:1011CA00A0002008F8007335A0002008FA00F21FDA
:1011DA00EF28F028F1287A147A080319F528F62856
:1011EA0006297A0A031DFA28FB2803290030F3008E
:1011FA000030F2000030F1000030F000F217F30185
:10120A000E290030F3000030F2000030F100003007
:10121A00F00077088039A0002008F90079087806DC
:10122A000319182919291A2978177735A0002008CF
:10123A00F900F61F2129222923297914790803198B
:10124A00272928293829790A031D2C292D293529E6
:10125A000030F7000030F6000030F5000030F400EE
:10126A00F617F70140290030F7000030F600003089
:10127A00F5000030F4007A08790203184529462956
:10128A008A29781F49294A294E298030A000200836
:10129A00F8067A08A0002008FB007908A0002008B8
:1012AA00FA007B08A0002008F9007008A0002008B6
:1012BA00FB007408A0002008F0007B08A0002008AA
:1012CA00F4007108A0002008FB007508A00020089F
:1012DA00F1007B08A0002008F5007208A000200891
:1012EA00FB007608A0002008F2007B08A000200876
:1012FA00F6007308A0002008FB007708A000200869
:10130A00F3007B08A0002008F700FB017908A00081
:10131A00A1012108A3007A082002A200031CA3034A
:10132A002308803AA40080302402031D9E291A3023
:10133A002202031CA129A229DC2973087204710460
:10134A007004031DA929AB290130AC290030200003
:10135A00A0002008FB000030F3000030F20000304B
:10136A00F1000030F0007908A0002008FA00E22914
:10137A007B1CC029C129C8297B3601382000A0005E
:10138A002008FB00CA290310FB0C701CCD29CE29AA
:10139A00CF29FB1701302000A000F337F20CF10C23
:1013AA00F00CA00BD2290130A0002008FA07790816
:1013BA007A02031CE129E229BD29781BE529E629DD
:1013CA00202A7A08031DEA29EB29F4290030F300C0
:1013DA000030F2000030F1000030F000202B7408D9
:1013EA00F0077508F13D7608F23D7708F33D731C66
:1013FA00FF29002AAD2A7B1C032A042A0B2A7B36E2
:10140A0001382000A0002008FB000D2A0310FB0C65
:10141A00701C102A112A122AFB1701302000A00082
:10142A00F337F20CF10CF00CA00B152A0130A000D6
:10143A002008FA07AD2A7308803A2000A00077082E
:10144A00803A2002031D332A76087202031D332ACA
:10145A0075087102031D332A740870020318362AAC
:10146A00372A6F2AFF30A000FF30A100FF30A20008
:10147A00FF30A30070087402A4007108753BA50030
:10148A007208763BA6007308773BA7002408A007DA
:10149A002508A13D2608A23D2708A33D2308F300FD
:1014AA002208F2002108F1002008F0008030A00094
:1014BA002008F806FB09FB0A7B08031D652A662A31
:1014CA00772A0130F0070030F13D0030F23D00305C
:1014DA00F33D772A7408F0027508F13B7608F23B6F
:1014EA007708F33B7308720471047004031D7E2AA3
:1014FA007F2AA92A7B08031D832A842AA92A003065
:10150A00F3000030F2000030F1000030F000202B30
:10151A000130F035F10DF20DF30D890B8E2AFB1F08
:10152A00972A982A992A70147B1C9C2A9D2AA02AF9
:10153A000314FB0DA22A0310FB0D7A080319A62A2D
:10154A00A72AA92A0130FA02F21FAC2AAD2A8D2A4B
:10155A00F901FB1FB12AB22AC02A7B087F39031975
:10156A00B72AB82ABB2AF901F90AC02A701CBE2A6E
:10157A00BF2AC02AB82A79080319C42AC52AF32A15
:10158A000130F0070030F13D0030F23D0030F33D0C
:10159A00731CD02AD12AF32A70082000A0007108EF
:1015AA00A1007208A2007308A3000130A400A337A7
:1015BA00A20CA10CA00CA40BDC2A2308F30022081D
:1015CA00F2002108F1002008F0007A0A0319EE2A35
:1015DA00EF2AF32A0130A0002008FA077A0A031931
:1015EA00F72AF82AFD2A7A08031DFC2AFD2A0B2B62
:1015FA000030F3000030F2000030F1000030F0005B
:10160A007A08031D092B0A2B0B2BF8017A1C0E2BC7
:10161A000F2B112BF217162B7F302000A000200869
:10162A00F2057A362000A0002008F300F81F1E2BCE
:10163A001F2B202BF3170800200023088039A8004D
:10164A002808AD002335A8002808B300A21F2E2BB6
:10165A002F2B302B331433080319342B352B442BFF
:10166A00330A031D392B3A2B422B0030A3000030DA
:10167A00A2000030A1000030A000A2174C2B0030BD
:10168A00A3000030A2000030A1000030A00027080B
:10169A008039A8002808AD062735A8002808B20016
:1016AA00A61F582B592B5A2B3214320803195E2BBA
:1016BA005F2B6E2B320A031D632B642B6C2B0030BD
:1016CA00A7000030A6000030A5000030A400A6172D
:1016DA00762B0030A7000030A6000030A5000030AD
:1016EA00A400320803197A2B7B2B802B3308031DA5
:1016FA007F2B802B892B0030A3000030A200003002
:10170A00A1000030A000772D2008A8002808F000CA
:10171A0026089E31E4268B3171082000B900700832
:10172A00B8003808A800A901AA01AB012B08B1002A
:10173A002A08B0002908AF002808AE003908A80016
:10174A00A901AA01AB012B08B7002A08B60029088B
:10175A00B5002808B4002108A8002808F0002508C8
:10176A009E31E4268B3171082000B9007008B80058
:10177A003808A800A901AA01AB012808AE07290860
:10178A00AF3D2A08B03D2B08B13D3908A800A90190
:10179A00AA01AB012808B4072908B53D2A08B63DB5
:1017AA002B08B73D2208A8002808F00024089E311B
:1017BA00E4268B3171082000B9007008B800380897
:1017CA00A800A901AA01AB012808AE072908AF3D64
:1017DA002A08B03D2B08B13D3908A800A901AA0181
:1017EA00AB012808B4072908B53D2A08B63D2B08DD
:1017FA00B73D0830AE35AF0DB00DB10D890BFF2BDB
:10180A002108A8002808F00024089E31E4268B311C
:10181A0071082000B9007008B8003808AE07390806
:10182A00AF3D0030B03DB13D2008A8002808F000C7
:10183A0025089E31E4268B3171082000B900700812
:10184A00B8003808AE073908AF3D0030B03DB13DA9
:10185A000830AE35AF0DB00DB10D890B2E2C200816
:10186A00A8002808F00024089E31E4268B3171086C
:10187A002000B9007008B8003808AE073908AF3D33
:10188A000030B03DB13D2108A8002808F000260824
:10189A009E31E4268B3171082000B9007008B80027
:1018AA003808B4073908B53D0030B63DB73D2208BF
:1018BA00A8002808F00025089E31E4268B3171081B
:1018CA002000B9007008B8003808B4073908B53DD7
:1018DA000030B63DB73D2208A8002808F0002608C7
:1018EA009E31E4268B3171082000B9007008B800D7
:1018FA003808A8003908A900AA01AB010830A835A0
:10190A00A90DAA0DAB0D890B842C2808B407290848
:10191A00B53D2A08B63D2B08B73D2E08A8002F086A
:10192A00A9003008AA003108AB001830AB36AA0C5F
:10193A00A90CA80C890B9B2C2808B4072908B53DCB
:10194A002A08B63D2B08B73D0830AE35AF0DB00DAD
:10195A00B10D890BAA2C33083207A800A901A90DD9
:10196A002808823EB800FF30293DB900D32C013047
:10197A00B435B50DB60DB70D890BBD2CB11FC62CEC
:10198A00C72CC82C34140130AE35AF0DB00DB10DD3
:10199A00890BC92CFF30B807FF30B93DB61FD62CCA
:1019AA00D72CBC2CB201B11FDB2CDC2CF82CFF305D
:1019BA002E05A800FF302F05A900FF303005AA0028
:1019CA007F303105AB002B082A04290428040319A7
:1019DA00EF2CF02CF32CB201B20AF82C341CF62CA2
:1019EA00F72CF82CF02C32080319FC2CFD2C252D91
:1019FA000130B4070030B53D0030B63D0030B73D88
:101A0A00371C082D092D252D3408A8003508A900F2
:101A1A003608AA003708AB000130AC00AB37AA0C75
:101A2A00A90CA80CAC0B132D2B08B7002A08B6007A
:101A3A002908B5002808B4000130B8070030B93DBC
:101A4A003908803AA80080302802031D2E2DFF3065
:101A5A003802031C312D322D3C2D7F302000B70077
:101A6A008030B6000030B5000030B4006B2D200085
:101A7A003908803AA80080302802031D462D01301B
:101A8A0038020318492D4A2D552D00302000B70081
:101A9A000030B6000030B5000030B400AD016B2D47
:101AAA0020003808A8002808B300FF30B405FF302A
:101ABA00B5057F30B6050030B705331C652D662D98
:101ACA00672DB6173336A8002808B7002D08A800D6
:101ADA002808B7043708A3003608A2003508A10071
:101AEA003408A00008002100E4005308860087019A
:101AFA00403FD500413FD60055088400560885006E
:101B0A001200253A031D8A2D8B2DDC2F53088600DF
:101B1A0087010130810741310318810A2200E90156
:101B2A00EA012100EE01EF01FF302200EB00FF3055
:101B3A00EC002100DA01DB01DD2D6E14530886006A
:101B4A0087010130810741310318810ADD2DEE1426
:101B5A00A32D6E15A32DEE15A32D6E16A32D013000
:101B6A00DA000030DB00DD2D530886008701403F94
:101B7A00D500413FD6005508840056088500000864
:101B8A00D700D8015808003A0319CC2DB42D5708AC
:101B9A00203A0319B02D033A0319B22D083A031952
:101BAA00AE2D063A0319A22D1D3A0319AC2DB42DF8
:101BBA005A085B040319E22DE32DB92D6E1CE62D9C
:101BCA00E72DEB2DFD30EE05FF30EF0553088600BB
:101BDA008701403FD500413FD6005508840056088A
:101BEA00850012002E3A031DFB2DFC2D652E2200C6
:101BFA00EB01EC01210053088600870101308107BF
:101C0A0041310318810A530886008701403FD500F5
:101C1A00413FD600550884005608850012002A3A2A
:101C2A00031D182E192E312E530886008701013004
:101C3A00810741310318810A540886000130870060
:101C4A00010884000130850002308107003F22002C
:101C5A00EB00013FEC00652E530886008701403FE8
:101C6A00F600413FF70093315C238D31770822005B
:101C7A00EC007608EB00492E5308860087010130F4
:101C8A00810741310318810A210053088600870120
:101C9A00403FD500413FD6005508840056088500CC
:101CAA000008D03ED700FF3003180030D8000030BB
:101CBA0058020A3003195702031C642E652E412E5E
:101CCA002100530886008701403FD500413FD600D6
:101CDA0055088400560885000008D700D80157081F
:101CEA00F6005808F7009D3187258D3176082100C6
:101CFA00D9005908E00060080319842E852EC42EE5
:101D0A00530886008701403FD500413FD600013085
:101D1A005507840056080318560A85000008D7009C
:101D2A00D8015708F6005808F7009D3187258D31EC
:101D3A0076082100D9005908E10061080319A62E86
:101D4A00A72EC42E530886008701403FD500413F85
:101D5A00D60002305507840056080318560A850033
:101D6A000008D700D8015708F6005808F7009D3137
:101D7A0087258D3176082100D9005908E20066309E
:101D8A006006031DC92ECA2E162F53088600870126
:101D9A00403FD500413FD6005508840056088500CB
:101DAA000008D7005708E30053088600870101306E
:101DBA00810741310318810A5408860001308700DF
:101DCA00010884000130850004308107003FDC00EF
:101DDA00013FDD00023FDE00033FDF005F08200015
:101DEA00EB0021005E082000EA0021005D082000C7
:101DFA00E90021005C082000E80021006308D50002
:101E0A0055082000EC002100640880317C208D31C7
:101E1A00200069082100D400200068082100D300AE
:101E2A00FF2F2B30F0009830F1000230F200003022
:101E3A00F300E03090312E208D3170087104031DBB
:101E4A00272F282FA62F2100530886008701403FFD
:101E5A00D500413FD60001305507840056080318C3
:101E6A00560A85000008D7005708E3005308860081
:101E7A008701403FD500413FD600550884005608E7
:101E8A0085000008BF3ED700FF3003180030D80095
:101E9A00003058021A30031957020318552F562FCB
:101EAA00692F540886000130870001088400013038
:101EBA00850004308107003FDC00013FDD00023F5E
:101ECA00DE00033FDF007B2F5408860001308700C5
:101EDA00010884000130850004308107003FDC00DE
:101EEA00013FDD00023FDE00033FDF0053088600AA
:101EFA0087010230810741310318810A5F082000F7
:101F0A00EB0021005E082000EA0021005D082000A5
:101F1A00E90021005C082000E80021006308D500E0
:101F2A0055082000EC002100640880317C208D31A6
:101F3A00200069082100D400200068082100D3008D
:101F4A00FF2F2100530886008701403FD500413FFB
:101F5A00D60055088400560885001200253A031D4C
:101F6A00B72FB82FD12F5308860087010130810778
:101F7A0041310318810A2530F0000030F10064086D
:101F8A00D5005508F200903186208D3101302100AC
:101F9A00D3000030D400FF2F530886008701013098
:101FAA00810741310318810AD301D401FF2F530855
:101FBA0086008701403FD500413FD600550884007E
:101FCA00560885000008D700D8015708F0005808BD
:101FDA00F1006408D9005908F200903186208D3149
:101FEA002100530886008701013081074131031817
:061FFA00810ACB2F080054
:102004002200A60022302100ED006D082200A70066
:1020140026082100ED006D082200A800AA01AB01EA
:10202400B001B10121082100E600220020082100AE
:10203400E5002730ED006D08E700283088310520E1
:10204400903122002A0826072100ED006D08860041
:102054000130870081010800F5007508F400740858
:10206400F8007108F7007008F6000130F202003041
:10207400F33B720A031D4228730A031D42284328B6
:102084005228F001F10185280130F4007408F807A2
:102094000130F6070030F73D0130F2020030F33B27
:1020A4007808860087010108031959285A287828D6
:1020B40076088400770885001200031962286328D3
:1020C4007828720873040319682869287828760820
:1020D4008400770885000008F400780886008701EA
:1020E400010874060319772878284628780886009A
:1020F4008701760884007708850000080102F00053
:10210400F101031CF1030800720803198A288B28C3
:1021140090287208031D8F28902895287008803114
:1021240007209031DE287208083E860001308700BF
:102134001600010403199F28A028C0287208083E2D
:10214400860001308700403FF300413FF4007208ED
:10215400023E860001308700403FF500413FF60013
:102164007608803AF7007408803A7702031DBC2889
:10217400730875020318BF28C028DE287008F3000E
:1021840072088600013087007208023E8400013024
:10219400850000080107F4007408860001308700F8
:1021A400730881007208023E860001308700013006
:1021B400810741310318810A08007908FB007B0874
:1021C4002000A5007A08FB007B08A300023023024C
:1021D4000318ED28EE28382910302502031CF328B3
:1021E400F428F528382923030319F928FA280029A3
:1021F40080302504A0000030A1000529C03025044A
:10220400A0000030A10020089E3104269031FA304D
:102214000032890B0A292000A40127292408FB0085
:102224007B08A2000130FB007B08A4077808FC00AF
:102234007708FB0022087B0784007C0803187C0ACB
:10224400850000089D31E72590317808FC00770867
:10225400FB00200024087B0784007C0803187C0A08
:1022640085001200031D3729382910290800200091
:10227400AB0021006E1C3F294029492920002B086E
:10228400FC007C08F80024089F31072791312000C6
:10229400A61B4D294E2953292608AA002508A90062
:1022A4005529A901AA01A701A80169292030F00034
:1022B4000030F10020002B08FC007C08F200903173
:1022C4008620913101302000A7070030A83D28085E
:1022D400803AFC002A08803A7C02031D73292908ED
:1022E4002702031C76297729582921006E187B2997
:1022F4007C29852920002B08FC007C08F800240890
:102304009F310727913120002408F0000230F100AA
:102314009D31CE259131200029087007A4002A0898
:10232400713DA50008007808F1007708F0009D31A0
:10233400CE2591317008FA007108FB00FB36FA0CC7
:102344007A08083CFC007C082000A2007908FA0006
:102354007A08A30002302302031CB129B229B3294D
:10236400F22923030319B729B829BE29803022048E
:10237400A0000030A100C329C0302204A000003016
:10238400A10020089E3104269131FA300032890BD5
:10239400C8292000A401E2297808FB007708FA0084
:1023A40024087A0784007B0803187B0A8500000848
:1023B4009D31E72591310130FA007A082000A40705
:1023C4007808FB007708FA0024087A0784007B0861
:1023D40003187B0A85001200031DF129F229CE2976
:1023E4000800F601F11FF729F829FF29F009F1097E
:1023F400F00A0319F10AF601F60AF31F022A032A66
:102404000C2AF209F309F20A0319F30A0130F40061
:102414007408F606F701F801700871040319132A09
:10242400142A432AF501F50A202A0130F035F10D6A
:10243400890B182A0130F4007408F507F11F232AC8
:10244400242A172A0130F735F80D890B252A71083B
:102454007302031D2F2A70087202031C322A332AC6
:10246400382A7008F2027108F33B77140130F13610
:10247400F00C890B392A0130F502031D422A432A44
:10248400242A76080319472A482A4D2AF709F80905
:10249400F70A0319F80A7808F1007708F000080031
:1024A400220066082000A500220065082000A40080
:1024B400220064082000A300220063082000A20078
:1024C4007308A5007208A4007108A3007008A20094
:1024D4002208F4002308F5002408F6002508F70074
:1024E4001730F736F60CF50CF40C890B732AFF3011
:1024F4007405A00000307505A10020082104031D07
:10250400842A852AA62A2208F4002308F500240830
:10251400F6002508F7000130F435F50DF60DF70D3A
:10252400890B8E2A7708760475047404031D9B2A8C
:102534009C2AA12A0230F0000030F100D02A033096
:10254400F0000030F100D02A200A2104031DAB2A38
:10255400AC2ACC2A2208F4002308F5002408F6004B
:102564002508F7000930F435F50DF60DF70D890B44
:10257400B52A77087604750474040319C22AC42A98
:102584000130C52A0030F800F9017808F000790814
:10259400F100D02A0430F0000030F10008000030CF
:1025A40020003A05C20000303B05C30080303C05E2
:1025B400C4007F303D05C50045084404430442047B
:1025C400031DE52AE62AEE2A0030BD000030BC00D7
:1025D4000030BB000030BA0000303E05C2000030BD
:1025E4003F05C30080304005C4007F304105C5006D
:1025F4004508440443044204031D012B022B0A2B07
:102604000030C1000030C0000030BF000030BE0008
:10261400BD1F0D2B0E2B262B0030C2000030C30033
:102624000030C4008030C5003A08C2023B08C33BF6
:102634003C08C43B3D08C53B4508BD004408BC00FC
:102644004308BB004208BA00C11F292B2A2B422B86
:102654000030C2000030C3000030C4008030C50028
:102664003E08C2023F08C33B4008C43B4108C53B87
:102674004508C1004408C0004308BF004208BE002A
:102684008030BD068030C10641083D02031D542B35
:1026940040083C02031D542B3F083B02031D542BEE
:1026A4003E083A020318572B582B5A2B03105B2B66
:1026B400031408002000A201A301A001A101662BBC
:1026C4000130F6070030F73D76088400770885006E
:1026D4001200203A03196F2B702B622B76088400AA
:1026E400770885000008F73EF800FF300318003033
:1026F400F90000307902053003197802031C832B9A
:10270400842B622B8F2B01302000A0000030A1000D
:102714000130F6070030F73DC42B760884007708B3
:1027240085000008F800F9017908003A03199B2B89
:10273400C42B78082B3A03198A2B063A0319852BE4
:10274400C42B76088400770885000008F800200070
:102754002308F1002208F0000A30F2000030F300F0
:102764009E31232693317108FA0078087002F9002B
:10277400031CFA037908303E2000A20000307A3DA1
:10278400A3008A2B76088400770885000008D03ED1
:10279400F800FF3003180030F900003079020A30E5
:1027A40003197802031CD72BD82BA32B2000200855
:1027B4002104031DDE2BDF2BEB2B2209F800230958
:1027C400F900F80A0319F90A7808F6007908F700FD
:1027D400EF2B2308F7002208F60008002300330833
:1027E4002000E700230032082000E600230031081F
:1027F4002000E500230030082000E4005708E7002B
:102804005608E6005508E5005408E4006408D800BA
:102814006508D9006608DA006708DB001730DB3684
:10282400DA0CD90CD80C890B112CFF305805DC00BC
:1028340000305905DD005C08813EE200FF305D3D5B
:10284400E3006308803AD80080305802031D2C2C22
:1028540017306202031C2F2C302C312CDA2C200070
:10286400E31B352C362C932CFF30D800FF30D900D5
:102874007F30DA000030DB00620A442CDB37DA0CEC
:10288400D90CD80C890B402C5B08E1005A08E000F5
:102894005908DF005808DE0064085E05D8006508A2
:1028A4005F05D90066086005DA0067086105DB008A
:1028B4005B085A0459045804031D612C622C632CD0
:1028C400302C6408D8006508D9006608DA00670867
:1028D400DB001F30DB36DA0CD90CD80C890B6C2CDE
:1028E4005B085A04590458040319792C7A2C822C55
:1028F4005E08E4075F08E53D6008E63D6108E73DE2
:102904005E09D8005F09D9006009DA006109DB00BB
:102914005808E4055908E5055A08E6055B08E70583
:10292400D22C6408D8006508D9006608DA00670864
:10293400DB001F30DB36DA0CD90CD80C890B9C2C4D
:102944005B085A0459045804031DA92CAA2CB32C5F
:102954000030E7000030E6000030E5000030E4001D
:10296400D22C6408D8006508D9006608DA00670824
:10297400DB000130D835D90DDA0DDB0D890BBC2C09
:102984005B085A04590458040319C92CCA2CD22CC4
:10299400BF30E7008030E6000030E5000030E4009E
:1029A4006708D7006608D6006508D5006408D40017
:1029B40008009E31622694310030F7009830F80008
:1029C400F9019131952194310E30F7009830F800D7
:1029D400F901FA01FA0A9031DF20943121000C1434
:1029E40023000C1421009517D0309E009F01013064
:1029F4009D001D145330890BFD2C000040309E3186
:102A040004269431A03086000130870038308400D9
:102A14000130850010302200B20016001A00B20BFB
:102A24000F2DE101E20122006108383E86000130E9
:102A3400870001089D31E725943101302200E10728
:102A44000030E23D6208803AB20080303202031D59
:102A54002D2D10306102031C302D312D152D210038
:102A64009D149D18362D372D332D1C082200B200DD
:102A7400B3013208DB003308DC0021001B0822000C
:102A8400B200B3015B08B500B40132083404B600E7
:102A940033083504B7003608DB003708DC0044305F
:102AA4002000BD007F30BC00C030BB000030BA0045
:102AB4004030A300A030A2000030A1000030A000EC
:102AC40022005B08F0005C08F100F201F301003021
:102AD40088313620943173082000A7007208A600BC
:102AE4007108A5007008A4008B31212394312000C3
:102AF4002308C1002208C0002108BF002008BE002E
:102B040096314C26943120003D082200DA00200042
:102B14003C082200D90020003B082200D8002000F5
:102B24003A082200D70042302000A300C830A20097
:102B34000030A1000030A00022005A082000A700A5
:102B4400220059082000A600220058082000A500F1
:102B5400220057082000A4008B3121239431200047
:102B640023082200E000200022082200DF002000C9
:102B740021082200DE00200020082200DD0015309C
:102B8400A0009830A1006008A5005F08A4005E08BA
:102B9400A3005D08A20048309031022094314830EF
:102BA400F7000130F80007302200B2003208F900C3
:102BB400FA01FA0A9031DF209431F701F70A0C3058
:102BC4009F313027943100309D31E72594312E30E8
:102BD400F7009830F8000D302200B2003208F900F6
:102BE400FA01FA0A9031DF209431220060082000B3
:102BF400BD0022005F082000BC0022005E08200007
:102C0400BB0022005D082000BA004230C100C83079
:102C1400C0000030BF000030BE009231D122943198
:102C24000318152E162E202EF701F70A0B309F31AC
:102C34003027943101309D31E7259431220060081A
:102C44002000BD0022005F082000BC0022005E08B6
:102C54002000BB0022005D082000BA004130C10002
:102C64002030C0000030BF000030BE009231D122BD
:102C7400943103183E2E3F2E312DF701F70A0A3006
:102C84009F313027943101309D31E7259431312D26
:102C940080310228200041088039C2004208CB005C
:102CA4004135C2004208D200C01F592E5A2E5B2E55
:102CB4005214520803195F2E602E702E520A031DFF
:102CC400642E652E6D2E0030C1000030C00000302F
:102CD400BF000030BE00C017C101782E0030C10013
:102CE4000030C0000030BF000030BE003D08803915
:102CF400C2004208CB063D35C2004208D300BC1FC7
:102D0400842E852E862E5314530803198A2E8B2E57
:102D14009B2E530A031D8F2E902E982E0030BD003B
:102D24000030BC000030BB000030BA00BC17BD014D
:102D3400A32E0030BD000030BC000030BB000030CA
:102D4400BA003D083C043B043A04031DAA2EAB2EF2
:102D5400C42E0030C1000030C0000030BF0000307D
:102D6400BE008030C0047F30C1044B08C20042085A
:102D7400C1044108BD004008BC003F08BB003E0838
:102D8400BA00FF2F5208031DC82EC92ED22E0030C0
:102D9400BD000030BC000030BB000030BA00FF2F83
:102DA4005208C200C3014308C50053084202C400CC
:102DB400031CC50344087F3ECC000030453DCD00D4
:102DC4004108CA004008C9003F08C8003E08C700BF
:102DD4000030C1000030C0000030BF000030BE0031
:102DE4000030D1000030D0000030CF000030CE00E1
:102DF400D3013A2F53080319002F012F1B2F013041
:102E0400C735C80DC90DCA0D890B022F0130BE3557
:102E1400BF0DC00DC10D890B092FD11F122F132F08
:102E2400142F3E140130CE35CF0DD00DD10D890BAA
:102E3400152F3D084A02031D292F3C084902031D92
:102E4400292F3B084802031D292F3A084702031C77
:102E54002C2F2D2F362F51173A08C7023B08C83B99
:102E64003C08C93B3D08CA3B0130C2004208D307B5
:102E74001A305302031C3F2F402FFC2E4A084904EA
:102E8400480447040319472F482F612F4E14612F1C
:102E94000130BE35BF0DC00DC10D890B4B2FD11FA5
:102EA400542F552F562F3E140130CE35CF0DD00D53
:102EB400D10D890B572FFF30CC07FF30CD3DC01FFC
:102EC400642F652F4A2FD301D11F692F6A2F862FB4
:102ED400FF304E05C200FF304F05C300FF305005E0
:102EE400C4007F305105C50045084404430442042E
:102EF40003197D2F7E2F812FD301D30A862F3E1CE9
:102F0400842F852F862F7E2F530803198A2F8B2F0A
:102F1400B32F0130BE070030BF3D0030C03D00304C
:102F2400C13D411C962F972FB32F3E08C2003F0886
:102F3400C3004008C4004108C5000130C600C537BD
:102F4400C40CC30CC20CC60BA12F4508C100440815
:102F5400C0004308BF004208BE000130CC07003067
:102F6400CD3D4D08803AC20080304202031DBC2F83
:102F7400FF304C02031CBF2FC02FCD2FFF30200089
:102F8400CC000030CD000030C1000030C000003063
:102F9400BF000030BE0020004D08803AC2008030DF
:102FA4004202031DD72F01304C020318DA2FDB2F06
:102FB400E72F2000CC01CD010030C1000030C0005B
:102FC4000030BF000030BE00CB0120004C08C2001E
:102FD4004208D200521CEF2FF02FF22FC017F62F09
:102FE4007F30C2004208C0055236C2004208C10008
:102FF4004B08C2004208C104BB2E080044345534B7
:103004004E3447342034323430343134343436346A
:103014003434383436340034543465346D347034D4
:1030240020343D340034253430342E343134663485
:10303400003449344E34463400344E3441344E3432
:10304400003469346E34663400346E3461346E3462
:0C30540000346C34663400344334003423
:103AC000640080010131890B612D0034FE00120079
:103AD0001E00FE0B672D003473087204710470041D
:103AE0000319732D742D762D8030F30608000E34E3
:103AF0000A340E340034003400340034003400340E
:103B000000340034003400340034003400347608CB
:103B1000BF3EF800FF30773DF900003079021A30DF
:103B2000031978020318952D962D9D2D20307604CB
:103B3000F60000307704F7009D2D08007008D03E95
:103B4000F200FF30713DF300003073020A300319B8
:103B50007202031CAC2DAE2D0130AF2D0030F400ED
:103B6000F5017408F0007508F10008007008BF3E08
:103B7000F200FF30713DF300003073021A30031978
:103B80007202031CC42DC62D0130C72D0030F40075
:103B9000F5017408F0007508F10008007108F400E0
:103BA0007008F300D72D0130F0070030F13D7008A8
:103BB0008400710885001200031DDF2DE02DD32D38
:103BC00073087002F0007408713BF1000800F60001
:103BD000FA300032890BE92DF001F00A76089E31A7
:103BE00042269D317608F4000330F435FF3E031D74
:103BF000F52D7435F5007508F600F001F00A760829
:103C00009E3142269D310800F600FA300032890BC1
:103C1000062EF00176089E3142269E317608F40089
:103C20000330F435FF3E031D112E7435F500750881
:103C3000F6005330890B1A2E0000F00176089E31F1
:103C400042269E310800F401F501701C282E292E11
:103C50002D2E7208F4077308F53D0130F235F30D8F
:103C6000890B2E2E0130F136F00C890B332E7008A3
:103C70007104031D3C2E3D2E252E7508F10074089D
:103C8000F0000800F3007308F1000430F136890BEE
:103C9000462E7108F2007208F30073080F39F10024
:103CA0007108F30020000E08F0398E000E0873042E
:103CB0008E00700C031C0E1203180E168E120E17B7
:103CC0000E13080020008E0121008E010530F70040
:103CD000DE30890B692EF70B692E32309E310426B7
:103CE0009E3128309E3104269E310C309E310426B0
:103CF0009E3101309E3104269E3106309E310426CD
:103D00009E31080080302000BD064108F3004008C5
:103D1000F2003F08F1003E08F0003D08F7003C08C3
:103D2000F6003B08F5003A08F4008831E2209E31A5
:103D300073082000BD007208BC007108BB00700849
:103D4000BA000800F401F40A203070067104031967
:103D5000AA2EAB2EBB2E7008F73EF200FF30713D4D
:103D6000F30000307302053003197202031CB92EF0
:103D7000BA2EBB2EF4017408F200F3017208F000B1
:103D80007308F1000800F7007108F5007008F400EE
:103D90007708F2007208F600760886000230870085
:103DA000F60A7508F3007408F200F40A0319F50A1C
:103DB00072088400730885000008C03F8908031D4D
:103DC000E22EE32ECC2E0800F800F401F501700875
:103DD000F200F3017208F6007308F700781CF12E68
:103DE000F22EF62E7608F4077708F53D0130F63509
:103DF000F70D890BF72E0310F80C7808031D012F1F
:103E0000022FEE2E7508F1007408F0000800200063
:103E1000A300A101A2011F2F2008F900FA017908CF
:103E2000F0007A08F1007808FB007B08F20090317E
:103E300086209F3101302000A1070030A23D2108DB
:103E40002307F90079088600023087000108FA008C
:103E50007A08A0002008031D2E2F2F2F0C2F0800FA
:103E6000F9007908F8007808FD007708F80078086C
:103E7000FC0002307C0203183E2F3F2F5E2F1030D3
:103E80007D02031C442F452F462F5E2F7C03031910
:103E90004A2F4B2F512F80307D04FA000030FB0059
:103EA000562FC0307D04FA000030FB007A089E31A6
:103EB00004269F31FA300032890B5B2F0800003056
:103EC0007005F80000307105F90080307205FA00C5
:103ED0007F307305FB007B087A0479047804031DA6
:103EE000722F732F7B2F0030F3000030F200003070
:103EF000F1000030F00000307405F8000030750566
:103F0000F90080307605FA007F307705FB007B08EA
:103F10007A0479047804031D8E2F8F2F972F003099
:103F2000F7000030F6000030F5000030F4007708AC
:103F30007306031DA52F76087206031DA52F7508AD
:103F40007106031DA52F740870060319A82FA92F49
:103F5000AB2F0310AC2F03140800F601F31FB12F91
:103F6000B22FB92FF209F309F20A0319F30AF60185
:103F7000F60AF11FBC2FBD2FC22FF009F109F00A7C
:103F80000319F10A700871040319C72FC82FF12F04
:103F9000F501F50AD42F0130F035F10D890BCC2F46
:103FA0000130F4007408F507F11FD72FD82FCB2F5D
:103FB00071087302031DDE2F70087202031CE12FCB
:103FC000E22FE62F7008F2027108F33B0130F13660
:103FD000F00C890BE72F0130F502031DF02FF12FB4
:103FE000D82F76080319F52FF62FFB2FF209F309C6
:103FF000F20A0319F30A7308F1007208F0000800CE
:020000040001F9
:08000000FF3FFF3FFF3FFF3F00
:04000E00A409FF1D25
:00000001FF
