:040000009DEFFEF082
:020000040001F9
:10FD2600C000F900A400B000990092008200F8001B
:10FD360080009000260EF66EFD0EF76E010EF86E30
:10FD460000EE22F010EE14F00900F5CFEEFFE550BC
:10FD5600E150FAE100016AEFFFF0000E066E02BE06
:10FD6600B9EFFEF0B7EFFEF0BFEFFEF0016C021E3A
:10FD7600D8B0022A010E066E04BEC6EFFEF0C4EF2E
:10FD8600FEF0CAEFFEF0036C041ED8B0042A03503E
:10FD96000410D8B4D1EFFEF0D3EFFEF0F7EFFEF08B
:10FDA600010E056EDBEFFEF0D89003360436052A09
:10FDB60004AEE0EFFEF0E2EFFEF0D7EFFEF0035008
:10FDC600015C04500258D8A0EBEFFEF0EDEFFEF018
:10FDD600F1EFFEF00350015E0450025AD89004324F
:10FDE6000332052EE2EFFEF00650D8B4FDEFFEF02A
:10FDF600FFEFFEF003EFFFF0016C021ED8B0022AFF
:10FE060001C001F002C002F01200000E066E04BE30
:10FE160011EFFFF00FEFFFF017EFFFF0036C041E7A
:10FE2600D8B0042A010E066E02BE1EEFFFF01CEFCC
:10FE3600FFF024EFFFF0016C021ED8B0022A010E7B
:10FE4600061A000E086E000E076E03500410D8B492
:10FE56002FEFFFF031EFFFF059EFFFF0010E056EC7
:10FE660039EFFFF0D89003360436052A04AE3EEF8C
:10FE7600FFF040EFFFF035EFFFF0D8900736083679
:10FE86000350015C04500258D8A04CEFFFF04EEF2F
:10FE9600FFF053EFFFF00350015E0450025A078053
:10FEA600D89004320332052E40EFFFF00650D8B446
:10FEB6005FEFFFF061EFFFF065EFFFF0076C081EE4
:10FEC600D8B0082A07C001F008C002F01200000EE0
:10FED600926E000E936E000E966E000E956E20EEDC
:10FEE60022F010EE0AF0130EDBCFE3FFE806FCE289
:10FEF600000E1F6E000E1E6E000E216E000E206E8E
:10FF06001EC001F01FC002F0000E046E0A0E036E42
:10FF1600B0ECFEF0D890013602360A0E0124D96EF6
:10FF2600000E0220DA6EDF508D6E1EC001F01FC07B
:10FF360002F0000E046E0A0E036E08ECFFF0D89075
:10FF4600013602360A0E0124D96E000E0220DA6E40
:10FF5600DF508C6E20C001F021C002F0000E046E4E
:10FF66000A0E036EB0ECFEF0D890013602360A0E89
:10FF76000124D96E000E0220DA6EDF50896E20C091
:10FF860001F021C002F0000E046E0A0E036E08ECAA
:10FF9600FFF0D890013602360A0E0124D96E000E03
:10FFA6000220DA6EDF508A6E340E096EF20EE82EEB
:10FFB600FED7092EFCD7204A212A21BEECEFFFF0FE
:10FFC600215009E13C0E205CD8A0ECEFFFF0EEEFEB
:10FFD600FFF083EFFFF01E4A1F2A1FBEFCEFFFF063
:10FFE6001F5009E13C0E1E5CD8A0FCEFFFF0FEEFAF
:0AFFF600FFF07FEFFFF000EF00F0D6
:020000040020DA
:08000000FFFFFFFFFFFFFFFF00
:020000040030CA
:0E0000001C087F7F018990FFFFC0FFE0FF40DA
:00000001FF
