:08000000803102288731EE2F48
:100BFE00FE0012001E00FE0B002E0034C034F9342D
:100C0E00A434B034993492348234783480349034AD
:100C1E000034003400340034003400340034003426
:100C2E00003400347808790403191E2E1F2E482E26
:100C3E00FD01FD0A2B2E0130F835F90D890B232EFF
:100C4E000130FC007C08FD07F91F2E2E2F2E222EC0
:100C5E0079087B02031D352E78087A02031C382E84
:100C6E00392E3D2E7808FA027908FB3B0130F93611
:100C7E00F80C890B3E2E0130FD02031D472E482E27
:100C8E002F2E7B08F9007A08F8000800F501F6010E
:100C9E00700871040319542E552E842EF701F70A8D
:100CAE00612E0130F035F10D890B592E0130F40013
:100CBE007408F707F11F642E652E582E0130F53596
:100CCE00F60D890B662E71087302031D702E7008C7
:100CDE007202031C732E742E792E7008F2027108A4
:100CEE00F33B75140130F136F00C890B7A2E01307E
:100CFE00F702031D832E842E652E7608F1007508EB
:100D0E00F00008002000B501B601B301B4012100C6
:100D1E008E150E108E100E110E128E160E178E17B9
:100D2E000C1214302000A0000030A10087312927BA
:100D3E00863120008E1FA42EA52E1F2F8E1AA82EB0
:100D4E00A92E1F2F22000C1220008E19AF2EB02EAE
:100D5E00BA2E35083604031DB52EB62EBA2E013026
:100D6E00B5000030B6008E1DBD2EBE2EC82E35032A
:100D7E003604031DC32EC42EC82E0230B50000301B
:100D8E00B6008E19CB2ECC2ED72E02303506360459
:100D9E00031DD22ED32ED72E0330B5000030B60051
:100DAE00033035063604031DDD2EDE2EFD2E4B08D8
:100DBE00013EB1003108CB000B304B02031CE82E74
:100DCE00E92EED2E0A30B1003108CB0022000E16AE
:100DDE0021302000B1007630890BF32EB10BF32EAB
:100DEE0000002000B501B60122000E1204302000D2
:100DFE00B1003D30890B012FB10B012F00322000C5
:100E0E004B08B100B2013108A0003208A1008731B1
:100E1E002927863120000E1F152F162F1F2FCB01CD
:100E2E00B501B6010030A000A10087312927863117
:100E3E0020008E1B232F242FA02E22000C16A02E56
:100E4E008031022880302000A2002208B0000A3033
:100E5E00F8000030F9002108FB002008FA00863166
:100E6E001926873179082000A5007808A4000A30D9
:100E7E00F8000030F9000A30F0000030F1002108CF
:100E8E00F3002008F20086314D2687317108FB00F1
:100E9E007008FA0086311926873179082000A700DC
:100EAE007808A6006430F0000030F1002108F3004D
:100EBE002008F20086314D26873171082000A900E6
:100ECE007008A8002408373E860087010108A2009A
:100EDE00A3012208AA002308AB002608373E86008D
:100EEE0087010108A200A3012208AC002308AD006F
:100EFE002808373E860087010108A200A3012208B8
:100F0E00AE002308AF00CD012A083005A20022084A
:100F1E003006031D932F942F972F22008E14992F96
:100F2E0022008E100E140E1020002A35AA002B0D52
:100F3E00AB000130A2002208CD0708304D02031C81
:100F4E00A92FAA2F8B2FCD012C083005A200220825
:100F5E003006031DB32FB42FB72F22008E14B92FD6
:100F6E0022008E100E140E1020002C35AC002D0D0C
:100F7E00AD000130A2002208CD0708304D02031C3F
:100F8E00C92FCA2FAB2FCD012E083005A200220883
:100F9E003006031DD32FD42FD72F22008E14D92F16
:100FAE0022008E100E140E1020002E35AE002F0DC6
:100FBE00AF000130A2002208CD0708304D02031CFD
:100FCE00E92FEA2FCB2F22000E150E110800053047
:100FDE00840086308500373086000030870014305C
:100FEE008531FF258731CB01CC01CD012000863123
:020FFE00892E3A
:020000040001F9
:08000000FF3FFF3FFF3FFF3F00
:04000E00A709FF1D22
:00000001FF
