:10000000803102288731FD2F22008E147508F100FF
:100010007408F0008F31BA2780310800780879041D
:100020000319132814283D28FD01FD0A202801305A
:10003000F835F90D890B18280130FC007C08FD0704
:10004000F91F23282428172879087B02031D2A2852
:1000500078087A02031C2D282E2832287808FA0204
:100060007908FB3B0130F936F80C890B3328013055
:10007000FD02031D3C283D2824287B08F9007A084E
:10008000F8000800F501F601700871040319492809
:100090004A287928F701F70A56280130F035F10D82
:1000A000890B4E280130F4007408F707F11F592816
:1000B0005A284D280130F535F60D890B5B2871085B
:1000C0007302031D652870087202031C68286928E2
:1000D0006E287008F2027108F33B75140130F13696
:1000E000F00C890B6F280130F702031D782879285E
:1000F0005A287608F1007508F00008000A30F80068
:100100000030F90020005008FB004F08FA00803151
:100110000E20803179082000CD007808CC008F3186
:10012000AA2780310A30F0000030F100200050088A
:10013000F3004F08F2008031422080317108200026
:10014000CD007008CC008F31AA2780310A30F8002A
:100150000030F90020005208FB005108FA008031FD
:100160000E20803179082000CD007808CC008F3136
:10017000AA2780310A30F0000030F1002000520838
:10018000F3005108F20080314220803171082000D4
:10019000CD007008CC008F31E827803108002000A6
:1001A000CB01C81FD428D528DC28C709C809C70A2D
:1001B0000319C80ACB01CB0AC61FDF28E028E528AF
:1001C000C509C609C50A0319C60A45084604031924
:1001D000EA28EB281429CA01CA0AF7280130C535D4
:1001E000C60D890BEF280130C9004908CA07C61F90
:1001F000FA28FB28EE2846084802031D0129450875
:100200004702031C0429052909294508C702460895
:10021000C83B0130C636C50C890B0A290130CA0219
:10022000031D13291429FB284B0803191829192920
:100230001E29C709C809C70A0319C80A4808C60001
:100240004708C5000800031020003C0D3D0DBE000E
:100250003E08C4004408031D2E292F2938290030E8
:10026000BD000030BC000030BB000030BA00972950
:100270003A08BE003B08BF003C08C0003D08C10072
:100280001F30C136C00CBF0CBE0C890B41293E0883
:10029000C2004208C300BC17FF30BA05FF30BB05DF
:1002A000FF30BC050030BD059630C402C41F59297B
:1002B0005A2972294408803A973E03186029612917
:1002C00062292F290130BD36BC0CBB0CBA0C890B3E
:1002D00063290130BE003E08C407031D702971293F
:1002E0006229872920304402031C77297829822932
:1002F0002F290130BA35BB0DBC0DBD0D890B7A29F4
:100300000130C4024408031D86298729792943083E
:1003100003198B298C299729BA09BB09BC09BD0986
:10032000BA0A0319BB0A0319BC0A0319BD0A08005B
:10033000F800780803199D299E29B229F31FA129E5
:10034000A229B2297009FA007109FB007209FC00A8
:100350007309FD00FA0A0319FB0A0319FC0A0319C1
:10036000FD0ABA297308FD007208FC007108FB0041
:100370007008FA007308720471047004031DC12927
:10038000C229CB290030F3000030F2000030F10028
:100390000030F000432A9630F4007408F900DB299D
:1003A0000130F4007408F9070130FD36FC0CFB0C39
:1003B000FA0C890BD529FE307D05031DE029E129C2
:1003C000D029F5290130F4007408F9070130FA0743
:1003D0000030FB3D0030FC3D0030FD3D0130FD367E
:1003E000FC0CFB0CFA0C890BEF29FF307D05031D7B
:1003F000FA29FB29E229052A0130F9020130FA35F0
:10040000FB0DFC0DFD0D890BFF29FC1B082A092A99
:100410000F2A0230790203180E2A0F2AFC297918B4
:10042000122A132A1B2AFF30FA05FF30FB057F3002
:10043000FC05FF30FD050310F90C7908F400F50107
:10044000F601F7011830F435F50DF60DF70D890BAF
:10045000232A7408FA047508FB047608FC0477085C
:10046000FD0478080319352A362A3B2AF31F392A56
:100470003A2A3B2AFD177D08F3007C08F2007B082E
:10048000F1007A08F0000800E830F0000330F100D5
:1004900020005008F3004F08F200803142208231E2
:1004A00071082000D2007008D1000A30F800003036
:1004B000F9006430F0000030F1005008F3004F08FC
:1004C000F2008031422082317108FB007008FA008E
:1004D00080310E20823179082000D4007808D300C2
:1004E0000A30F0000030F1005008FB004F08FA001D
:1004F0006430F8000030F90080310E208231790834
:10050000F3007808F2008031422082317108200027
:10051000D6007008D5005008FB004F08FA00643080
:10052000F8000030F90080310E2082317908200077
:10053000DA007808D9000A30F8000030F9005A08CB
:10054000FB005908FA0080310E2082317908200022
:10055000D8007808D7000A30C5000030C600580817
:10056000C8005708C7008031CF20823120004608DC
:10057000CD004508CC008F31AA2782310A302000F7
:10058000C5000030C6005608C8005508C7008031B5
:10059000CF20823120004608CD004508CC008F31A5
:1005A000AA2782310A302000C5000030C600540856
:1005B000C8005308C7008031CF2082312000460890
:1005C000CD004508CC008F31AA2782310A302000A7
:1005D000C5000030C6005208C8005108C70080316D
:1005E000CF20823120004608CD004508CC008F3155
:1005F000E8278231080076087704031D002B012BC1
:10060000102B0130F4000030F500803104208231DD
:100610000630F4000030F5008F31A0278231222C03
:1006200076037704031D152B162B2C2B0430F400B6
:100630000030F5008031042082310230F4000030B7
:10064000F5008F31A02782310130F4000030F50031
:10065000803104208231222C023076067704031D7B
:10066000322B332B572B0130F4000030F5008F3143
:10067000A02782310130F4000030F50080310420E1
:1006800082310230F4000030F5008F31A027823132
:100690000130F4000030F500803104208231023056
:1006A000F4000030F5008F31A0278231222C033076
:1006B00076067704031D5D2B5E2B742B0130F4004E
:1006C0000030F5008F31A02782310230F400003075
:1006D000F5008031042082310430F4000030F50050
:1006E0008F31A0278231222C043076067704031D37
:1006F0007A2B7B2B982B0230F4000030F5008F31E1
:10070000A02782310230F4000030F500803104204F
:1007100082310230F4000030F5008F31A0278231A1
:100720000130F4000030F500803104208231222CA9
:10073000053076067704031D9E2B9F2BC32B0230BA
:10074000F4000030F5008F31A02782310130F40031
:100750000030F5008031042082310230F400003096
:10076000F5008F31A02782310130F4000030F50010
:100770008031042082310130F4000030F5008F31E7
:10078000A0278231222C063076067704031DC92B60
:10079000CA2BE02B0530F4000030F5008F31A02784
:1007A00082310130F4000030F500803104208231C4
:1007B0000130F4000030F5008F31A0278231222C67
:1007C000073076067704031DE62BE72BF62B043063
:1007D000F4000030F5008031042082310330F40051
:1007E0000030F5008F31A0278231222C08307606A8
:1007F0007704031DFC2BFD2B052C0730F400003083
:10080000F5008F31A0278231222C0930760677043B
:10081000031D0B2C0C2C222C0230F4000030F500B0
:100820008F31A02782310130F4000030F500803193
:10083000042082310430F4000030F5008F31A0270D
:100840008231222C0800200027088039A8002808BF
:10085000B1002735A8002808B800A61F302C312C7D
:10086000322C381438080319362C372C472C380A08
:10087000031D3B2C3C2C442C0030A7000030A6006C
:100880000030A5000030A400A617A7014F2C0030AF
:10089000A7000030A6000030A5000030A400230807
:1008A0008039A8002808B1062335A8002808B90017
:1008B000A21F5B2C5C2C5D2C391439080319612CA8
:1008C000622C722C390A031D662C672C6F2C0030A9
:1008D000A3000030A2000030A1000030A000A21749
:1008E000A3017A2C0030A3000030A2000030A10048
:1008F0000030A0002308220421042004031D812CC1
:10090000822C9B2C0030A7000030A6000030A500F0
:100910000030A4008030A6047F30A7043108A8006E
:100920002808A7042708A3002608A2002508A1007C
:100930002408A000D62D3808031D9F2CA02CA92C1C
:100940000030A3000030A2000030A1000030A00061
:10095000D62D3808A800A9012908AB0039082802BB
:10096000AA00031CAB032A087F3EB20000302B3DD7
:10097000B3002708B0002608AF002508AE00240801
:10098000AD000030A7000030A6000030A500003008
:10099000A4000030B7000030B6000030B5000030D1
:1009A000B400B901112D39080319D72CD82CF22C19
:1009B0000130AD35AE0DAF0DB00D890BD92C013026
:1009C000A435A50DA60DA70D890BE02CB71FE92CAA
:1009D000EA2CEB2C24140130B435B50DB60DB70D4F
:1009E000890BEC2C23083002031D002D22082F0256
:1009F000031D002D21082E02031D002D20082D02AD
:100A0000031C032D042D0D2D37172008AD022108DE
:100A1000AE3B2208AF3B2308B03B0130A8002808BA
:100A2000B9071A303902031C162D172DD32C3008A4
:100A30002F042E042D0403191E2D1F2D382D3414C0
:100A4000382D0130A435A50DA60DA70D890B222D3B
:100A5000B71F2B2D2C2D2D2D24140130B435B50DA1
:100A6000B60DB70D890B2E2DFF30B207FF30B33D09
:100A7000A61F3B2D3C2D212DB901B71F402D412D27
:100A80005D2DFF303405A800FF303505A900FF308B
:100A90003605AA007F303705AB002B082A0429044D
:100AA00028040319542D552D582DB901B90A5D2D6F
:100AB000241C5B2D5C2D5D2D552D39080319612DEE
:100AC000622D8A2D0130A4070030A53D0030A63DDF
:100AD0000030A73D271C6D2D6E2D8A2D2408A800FF
:100AE0002508A9002608AA002708AB000130AC00A1
:100AF000AB37AA0CA90CA80CAC0B782D2B08A700BF
:100B00002A08A6002908A5002808A4000130B20779
:100B10000030B33D3308803AA80080302802031D1E
:100B2000932DFF303202031C962D972DA42DFF30FC
:100B30002000B2000030B3000030A7000030A60053
:100B40000030A5000030A40020003308803AA8003F
:100B500080302802031DAE2D013032020318B12D62
:100B6000B22DBE2D2000B201B3010030A70000302D
:100B7000A6000030A5000030A400B101200032081A
:100B8000A8002808B800381CC62DC72DC92DA617E7
:100B9000CD2D7F30A8002808A6053836A8002808E3
:100BA000A7003108A8002808A704922C08002100FB
:100BB0000E108E100E118C140C1522000E108E10BB
:100BC0000E1123008C100C118E0121000C14230037
:100BD0000C1421009517D0309E009F0101309D001C
:100BE0001D145330890BF22D00002000E901E501AE
:100BF000E601E301E40121009D149D18002E012E61
:100C0000FD2D1C082000DB00DC015B08E1005C0816
:100C1000E20021001B082000DB00DC016108DE008F
:100C2000DD015B085D04DF005C085E04E0005F0836
:100C3000E1006008E2008C181E2E1F2E262E690887
:100C4000031D232E242E262EE901E90A8C1C292EB1
:100C50002A2E332E6903031D2E2E2F2E332E023003
:100C6000DB005B08E9008C18362E372E412E02304F
:100C70006906031D3C2E3D2E412E0330DB005B0830
:100C8000E9008C1C442E452E4F2E03306906031DAF
:100C90004A2E4B2E4F2E0430DB005B08E9008C18E7
:100CA000522E532E5D2E04306906031D582E592EE8
:100CB0005D2E0530DB005B08E9008C1C602E612E88
:100CC0006B2E05306906031D662E672E6B2E0630CF
:100CD000DB005B08E9008C186E2E6F2E792E063033
:100CE0006906031D742E752E792E0730DB005B0814
:100CF000E9008C1C7C2E7D2E872E07306906031D93
:100D0000822E832E872E0830DB005B08E9008C18CA
:100D10008A2E8B2E952E08306906031D902E912E5B
:100D2000952E0230DB005B08E9006903031D992E54
:100D30009A2EE72E6308013EE3000030643DE40094
:100D40006408D0006308CF006608D2006508D100AF
:100D500080317E2085310030200064023B30031951
:100D60006302031CB42EB52EE72EE301E4016508EF
:100D7000013EE5000030663DE600003066023C3092
:100D8000031965020318C52EC62ED02E0030CF00E1
:100D9000D0006608D2006508D10080317E20853100
:100DA0000030200066023C3003196502031CD92E76
:100DB000DA2EE72EE501E601E301E4010030CF0081
:100DC000D0000030D100D20080317E208531023049
:100DD00020006906031DED2EEE2EF42E0030CF000C
:100DE000D000823144228531033020006906031D82
:100DF000FA2EFB2E4D2F09302000DB001C30890B12
:100E0000FF2EDB0BFF2E000064302000C5000030F9
:100E1000C6006108F0006208F100F201F301003041
:100E200081319821853173082000A7007208A6003F
:100E30007108A5007008A4004130A3008A30A20008
:100E4000A330A100D730A0008431232485312000B5
:100E50002308BD002208BC002108BB002008BA00FE
:100E600081312321853120003B08C8003A08C700A2
:100E70008031CF20853120004508DB005B08E80089
:100E80000030CF00D0006808DB00DC015B08D10037
:100E90005C08D20080317E20853105302000690653
:100EA000031D532F542FA02F6430C5000030C600FF
:100EB0006108F0006208F100F201F30100308131B5
:100EC0009821853173082000A7007208A6007108D8
:100ED000A5007008A4004130A3008A30A200A3300E
:100EE000A100D730A00084312324853120002308BD
:100EF000BD002208BC002108BB002008BA008131D7
:100F00002321853120003B08C8003A08C700803102
:100F1000CF20853120004508DB005B08E70067082B
:100F2000DB00DC015B08CF005C08D0006808DD0056
:100F3000DE015D08D1005E08D20080317E2085315F
:100F4000073020006906031DA62FA72FEF2F670883
:100F5000013EDB005B08E7006708DB00DC015B08A3
:100F6000CF005C08D0006808DD00DE015D08D1001C
:100F70005E08D20080317E2085313B302000670240
:100F8000031CC32FC42FEF2FE7016808013EDB00CD
:100F90005B08E8003C3068020318CF2FD02FDD2F0C
:100FA0000030CF00D0006808DB00DC015B08D10016
:100FB0005C08D20080317E2085313C302000680200
:100FC000031CE32FE42FEF2FE801E7010030CF00EF
:100FD000D0000030D100D20080317E208531200049
:100FE0000C1DF32FF42FFB2DE301E401E501E601D5
:100FF000E701E801FB2D8031022820008531D72D43
:101F400022008E107508F1007408F0008F31BA2756
:101F50008F31080020004D08F7004C08F600823150
:101F6000FB228F310130F0000030F1008F31BA27B1
:101F70008F310800F201F301F201F301C62F2200B4
:101F80000E140E100130F2070030F33D7108730299
:101F9000031DCC2F70087202031CCF2FD02FBF2F30
:101FA0000800F201F301F201F301DD2F22000E150A
:101FB0000E110130F2070030F33D71087302031D6A
:101FC000E32F70087202031CE62FE72FD62F0800BC
:101FD00020004D08F7004C08F6008231FB228F31BB
:101FE0000130F0000030F1008F31D1278F311730F0
:101FF0002000CE00B930890BFB2FCE0BFB2F080041
:020000040001F9
:08000000FF3FFF3FFF3FFF3F00
:04000E00A409FF1D25
:00000001FF
