:08000000803102288731EF2F47
:100C6400FE0012001E00FE0B332E0034C034F93493
:100C7400A434B03499349234823478348034903447
:100C840000340034003400340034003400340034C0
:100C940000340034780879040319512E522E7B2E27
:100CA400FD01FD0A5E2E0130F835F90D890B562E33
:100CB4000130FC007C08FD07F91F612E622E552EC1
:100CC40079087B02031D682E78087A02031C6B2EB8
:100CD4006C2E702E7808FA027908FB3B0130F93645
:100CE400F80C890B712E0130FD02031D7A2E7B2E28
:100CF400622E7B08F9007A08F8000800F501F60175
:100D0400700871040319872E882EB72EF701F70A8D
:100D1400942E0130F035F10D890B8C2E0130F40046
:100D24007408F707F11F972E982E8B2E0130F53596
:100D3400F60D890B992E71087302031DA32E7008FA
:100D44007202031CA62EA72EAC2E7008F2027108A4
:100D5400F33B75140130F136F00C890BAD2E0130E4
:100D6400F702031DB62EB72E982E7608F1007508EB
:100D7400F00008002000B301B40121008E150E100C
:100D84008E100E110E128E160E1720008E1ECB2EF4
:100D9400CC2EC72E8E19CF2ED02EDA2E3308340443
:100DA400031DD52ED62EDA2E0130B3000030B40048
:100DB4008E1DDD2EDE2EE82E33033404031DE32EB8
:100DC400E42EE82E0230B3000030B4008E19EB2E6E
:100DD400EC2EF72E023033063404031DF22EF32ECC
:100DE400F72E0330B3000030B4000330330634046C
:100DF400031DFD2EFE2E052F4908013EB1003108CA
:100E0400C900B301B40104302000B1003D30890BA6
:100E1400092FB10B092F003220004908B100B2019B
:100E24003108A0003208A10087312A27863120002A
:100E34000E1F1D2F1E2FC72EC901B301B401003090
:100E4400A000A10087312A278631C72E80310228CD
:100E540080302000A2002208B0000A30F8000030E0
:100E6400F9002108FB002008FA0086314C2687315E
:100E740079082000A5007808A4000A30F8000030A2
:100E8400F9000A30F0000030F1002108F3002008D6
:100E9400F2008631802687317108FB007008FA0061
:100EA40086314C26873179082000A7007808A600EF
:100EB4006430F0000030F1002108F3002008F20053
:100EC40086318026873171082000A9007008A800A7
:100ED4002408353E860087010108A200A3012208E8
:100EE400AA002308AB002608353E860087010108C6
:100EF400A200A3012208AC002308AD002808353E57
:100F0400860087010108A200A3012208AE0023087D
:100F1400AF00CA012A083005A20022083006031DCA
:100F2400942F952F982F22008E149A2F22008E1022
:100F34000E140E1020002A35AA002B0DAB00013030
:100F4400A2002208CA0708304A02031CAA2FAB2FAA
:100F54008C2FCA012C083005A20022083006031D7C
:100F6400B42FB52FB82F22008E14BA2F22008E1062
:100F74000E140E1020002C35AC002D0DAD000130E8
:100F8400A2002208CA0708304A02031CCA2FCB2F2A
:100F9400AC2FCA012E083005A20022083006031D1A
:100FA400D42FD52FD82F22008E14DA2F22008E10A2
:100FB4000E140E1020002E35AE002F0DAF000130A0
:100FC400A2002208CA0708304A02031CEA2FEB2FAA
:100FD400CC2F22000E150E11080038308400863004
:100FE4008500353086000030870014308631322683
:0C0FF4008731C901CA0120008631BC2EE3
:020000040001F9
:08000000FF3FFF3FFF3FFF3F00
:04000E00A709FF1D22
:00000001FF
