:10000000803102288731E72FF1008A314422803184
:10001000003A03190C280D28052871088A3112228C
:100020008031080074080319162817281C28740842
:10003000031D1B281C2821287208803104208031D0
:1000400052287408083E860087011600010403192F
:100050002A282B2849287408083E86008701403F3B
:10006000F500413FF6007408023E86008701403FDC
:10007000F700413FF8007808803AF9007608803AA6
:100080007902031D45287508770203184828492876
:1000900052287408023E86008701013081074131F1
:1000A0000318810A0800FC007A0886008701403F97
:1000B0002000D500413FD600550884005608850031
:1000C0001200253A031D65286628AA287A088600AA
:1000D00087010130810741310318810AC201C30140
:1000E000C601C701FF30C400FF30C5007A08860092
:1000F0008701403FD500413FD6005508840056088F
:1001000085001200253A031D862887289F287A0833
:10011000860087010130810741310318810A2530AB
:10012000F2000030F3007C08D5005508F40080315F
:10013000122080310130FA000030FB00CC287A0810
:10014000860087010130810741310318810AFA01D5
:10015000FB01CC287A0886008701403FD500413F4B
:10016000D60055088400560885000008D700D8013D
:100170005708F2005808F3007C08D9005908F40029
:100180008031122080317A08860087010130810792
:1001900041310318810A9A2808008C3086002130EA
:1001A0008700413146300106031DD728D8280D2984
:1001B0008C30860021308700423146300106031D15
:1001C000E228E3280D298C30860021308700433156
:1001D00030300106031DED28EE280D298C308600F5
:1001E00021308700443137300106031DF828F928F3
:1001F0000D298C30860021308700453123300106DF
:10020000031D032904290D2922000E1302302000AA
:10021000E5006508CE00C801C9018C308600213098
:1002200087004F300106031D1629172957298C30E6
:10023000860021308700413146300106031D212907
:10024000222957298C3086002130870042314630E0
:100250000106031D2C292D2957298C3086002130B9
:100260008700433130300106031D372938295729CB
:100270008C30860021308700443138300106031D60
:100280004229432957298C30860021308700453187
:1002900023300106031D4D294E29572922008E13B4
:1002A00002302000E5006508CD00C801C9018C308E
:1002B0008600213087004F300106031D6029612927
:1002C000B2298C308600213087004131463001064A
:1002D000031D6B296C29B2298C30860021308700E0
:1002E000423146300106031D76297729B2298C3028
:1002F00086002130870043312A300106031D812901
:100300008229B2298C308600213087004431233085
:100310000106031D8C298D29B22902302000E50039
:100320006508D4000230E5006508D3000230E5001E
:100330006508D2000230E5006508D1000230E50012
:100340006508D0000230E5006508CF000230E50006
:100350006508CE000230E5006508CD00C801C9017E
:1003600022008E01200048034904031DB829B92941
:10037000512ACA01CB01BF298A31652280318931D6
:10038000F5218031003A0319C629C729BC298A31D1
:10039000352280312000E5008C30E6002130E70076
:1003A0004A086607E8004B08673DE90068088600D0
:1003B00069088700650881008C30E5002130E6007F
:1003C0004A08650786004B08663D87002330010612
:1003D000031DEB29EC29F0290B30CA000030CB00BB
:1003E0000130CA070030CB3D4B08803AE500803031
:1003F0006502031DFD290A304A02031C002A012A56
:10040000BF29512A2000D401D40A0130C80000308D
:10041000C900CA01CB010F2A8A3165228031893196
:10042000F5218031003A0319162A172A0C2A8A313D
:10043000352280312000E5008C30E6002130E700D5
:100440004A086607E8004B08673DE900680886002F
:1004500069088700650881008C30E5002130E600DE
:100460004A08650786004B08663D87002330010671
:10047000031D3B2A3C2A402A0B30CA000030CB0027
:100480000130CA070030CB3D4B08803AE500803090
:100490006502031D4D2A0A304A02031C502A512AC4
:1004A0000F2A8C3086002130870042300106031D60
:1004B0005A2A5B2AF82A8C30860021308700413185
:1004C0004C300106031D652A662AF82A8C30860006
:1004D00021308700423159300106031D702A712AEC
:1004E000F82A8C3086002130870043314E300106D7
:1004F000031D7B2A7C2AF82A8C3086002130870055
:1005000044314B300106031D862A872AF82A8C3095
:10051000860021308700453130300106031D912AC5
:10052000922AF82A8C3086002130870046313130FB
:100530000106031D9C2A9D2AF82A8C308600213052
:1005400087004731233001060319A72AA82A022A67
:10055000F82A2000D301D30A0130C8000030C900B6
:10056000CA01CB01B62A8A31652280318931F52151
:100570008031003A0319BD2ABE2AB32A8A313522B6
:1005800080312000E5008C30E6002130E7004A0889
:100590006607E8004B08673DE900680886006908BF
:1005A0008700650881008C30E5002130E6004A08AC
:1005B000650786004B08663D870023300106031D52
:1005C000E22AE32AE72A0B30CA000030CB000130D0
:1005D000CA070030CB3D4B08803AE5008030650209
:1005E000031DF42A0A304A02031CF72AF82AB62A05
:1005F0008C3086002130870042300106031D012B1C
:10060000022B9F2B8C3086002130870041314C30EB
:100610000106031D0C2B0D2B9F2B8C3086002130E7
:100620008700423159300106031D172B182B9F2BD1
:100630008C3086002130870043314E300106031D87
:10064000222B232B9F2B8C308600213087004431B6
:100650004B300106031D2D2B2E2B9F2B8C3086003B
:1006600021308700453130300106031D382B392BEE
:100670009F2B8C30860021308700463132300106B6
:10068000031D432B442B9F2B8C3086002130870089
:1006900047312330010603194E2B4F2BA92A9F2BDC
:1006A0002000D201D20A0130C8000030C900CA01BE
:1006B000CB015D2B8A31652280318931F521803172
:1006C000003A0319642B652B5A2B8A31352280316D
:1006D0002000E5008C30E6002130E7004A0866077C
:1006E000E8004B08673DE900680886006908870054
:1006F000650881008C30E5002130E6004A08650776
:1007000086004B08663D870023300106031D892BB8
:100710008A2B8E2B0B30CA000030CB000130CA0769
:100720000030CB3D4B08803AE50080306502031D68
:100730009B2B0A304A02031C9E2B9F2B5D2B8C3077
:1007400086002130870042300106031DA82BA92B0B
:10075000462C8C3086002130870041314C30010618
:10076000031DB32BB42B462C8C3086002130870020
:10077000423159300106031DBE2BBF2B462C8C3055
:1007800086002130870043314E300106031DC92BFE
:10079000CA2B462C8C3086002130870044314B30E8
:1007A0000106031DD42BD52B462C8C30860021301E
:1007B0008700453130300106031DDF2BE02B462C2E
:1007C0008C30860021308700463133300106031D0E
:1007D000EA2BEB2B462C8C308600213087004731EA
:1007E000233001060319F52BF62B502B462C200045
:1007F000D101D10A0130C8000030C900CA01CB01C3
:10080000042C8A31652280318931F5218031003A0A
:1008100003190B2C0C2C012C8A313522803120003D
:10082000E5008C30E6002130E7004A086607E80062
:100830004B08673DE900680886006908870065087D
:1008400081008C30E5002130E6004A08650786000B
:100850004B08663D870023300106031D302C312CE8
:10086000352C0B30CA000030CB000130CA070030F5
:10087000CB3D4B08803AE50080306502031D422CD9
:100880000A304A02031C452C462C042C8C3086006E
:100890002130870042300106031D4F2C502CED2CD7
:1008A0008C3086002130870041314C300106031D19
:1008B0005A2C5B2CED2C8C30860021308700423185
:1008C00059300106031D652C662CED2C8C308600FA
:1008D0002130870043314E300106031D702C712CEE
:1008E000ED2C8C3086002130870044314B300106DE
:1008F000031D7B2C7C2CED2C8C3086002130870056
:10090000453130300106031D862C872CED2C8C30B0
:10091000860021308700463134300106031D912CBA
:10092000922CED2C8C30860021308700473123300B
:10093000010603199C2C9D2CF72BED2C2000D001D7
:10094000D00A0130C8000030C900CA01CB01AB2C6D
:100950008A31652280318931F5218031003A0319CD
:10096000B22CB32CA82C8A31352280312000E5002E
:100970008C30E6002130E7004A086607E8004B08A3
:10098000673DE900680886006908870065088100FE
:100990008C30E5002130E6004A08650786004B08E8
:1009A000663D870023300106031DD72CD82CDC2C94
:1009B0000B30CA000030CB000130CA070030CB3DFD
:1009C0004B08803AE50080306502031DE92C0A30AF
:1009D0004A02031CEC2CED2CAB2C8C308600213011
:1009E000870042300106031DF62CF72C942D8C3025
:1009F00086002130870041314C300106031D012D56
:100A0000022D942D8C3086002130870042315930E0
:100A10000106031D0C2D0D2D942D8C3086002130E8
:100A2000870043314E300106031D172D182D942DDC
:100A30008C3086002130870044314B300106031D85
:100A4000222D232D942D8C308600213087004531B6
:100A500030300106031D2D2D2E2D942D8C30860057
:100A600021308700463135300106031D382D392DE0
:100A7000942D8C30860021308700473123300106C9
:100A80000319432D442D9E2C942D2000CF01CF0A15
:100A90000130C8000030C900CA01CB01522D8A3193
:100AA000652280318931F5218031003A0319592DB1
:100AB0005A2D4F2D8A31352280312000E5008C30AF
:100AC000E6002130E7004A086607E8004B08673D6A
:100AD000E9006808860069088700650881008C3095
:100AE000E5002130E6004A08650786004B08663DB0
:100AF000870023300106031D7E2D7F2D832D0B30B3
:100B0000CA000030CB000130CA070030CB3D4B0893
:100B1000803AE50080306502031D902D0A304A02BC
:100B2000031C932D942D522D8C308600213087008C
:100B300042300106031D9D2D9E2D3B2E8C308600DC
:100B40002130870041314C300106031DA82DA92D0D
:100B50003B2E8C308600213087004231593001060F
:100B6000031DB32DB42D3B2E8C3086002130870021
:100B700043314E300106031DBE2DBF2D3B2E8C3060
:100B800086002130870044314B300106031DC92DFA
:100B9000CA2D3B2E8C308600213087004531303005
:100BA0000106031DD42DD52D3B2E8C30860021301F
:100BB0008700463136300106031DDF2DE02D3B2E28
:100BC0008C3086002130870047312330010603191D
:100BD000EA2DEB2D452D3B2E2000CE01CE0A013013
:100BE000C8000030C900CA01CB01F92D8A31652245
:100BF00080318931F5218031003A0319002E012E10
:100C0000F62D8A31352280312000E5008C30E60057
:100C10002130E7004A086607E8004B08673DE90015
:100C20006808860069088700650881008C30E50047
:100C30002130E6004A08650786004B08663D8700BC
:100C400023300106031D252E262E2A2E0B30CA0026
:100C50000030CB000130CA070030CB3D4B08803A52
:100C6000E50080306502031D372E0A304A02031C5E
:100C70003A2E3B2EF92D8C308600213087004230F1
:100C80000106031D442E452EE22E8C3086002130B5
:100C9000870041314C300106031D4F2E502EE22EAD
:100CA0008C30860021308700423159300106031D07
:100CB0005A2E5B2EE22E8C30860021308700433185
:100CC0004E300106031D652E662EE22E8C30860006
:100CD0002130870044314B300106031D702E712EE8
:100CE000E22E8C30860021308700453130300106FD
:100CF000031D7B2E7C2EE22E8C3086002130870057
:100D0000463137300106031D862E872EE22E8C30A9
:100D10008600213087004731233001060319912EC8
:100D2000922EEC2DE22E2000CD01CD0A0130C8001C
:100D30000030C900CA01CB01A02E8A316522803162
:100D40008931F5218031003A0319A72EA82E9D2E56
:100D50008A31352280312000E5008C30E6002130D8
:100D6000E7004A086607E8004B08673DE9006808A5
:100D7000860069088700650881008C30E500213015
:100D8000E6004A08650786004B08663D8700233069
:100D90000106031DCC2ECD2ED12E0B30CA00003003
:100DA000CB000130CA070030CB3D4B08803AE5004C
:100DB00080306502031DDE2E0A304A02031CE12E3C
:100DC000E22EA02E8C3086002130870042300106B2
:100DD000031DEB2EEC2E972F8C30860021308700E0
:100DE00041314C300106031DF62EF72E972F8C3023
:100DF000860021308700423159300106031D012F42
:100E0000022F972F8C3086002130870043314E30DF
:100E10000106031D0C2F0D2F972F8C3086002130DB
:100E2000870044314B300106031D172F182F972FD1
:100E30008C30860021308700453130300106031D9B
:100E4000222F232F972F8C308600213087004631A8
:100E500038300106031D2D2F2E2F972F8C30860042
:100E6000213087004731233001060319382F392FED
:100E7000932E972F2000D401D40AD301D30AD20194
:100E8000D20AD101D10AD001D00ACF01CF0ACE01B6
:100E9000CE0ACD01CD0A0130C8000030C900CA0118
:100EA000CB01552F8A31652280318931F52180317E
:100EB000003A03195C2F5D2F522F8A313522803181
:100EC0002000E5008C30E6002130E7004A08660784
:100ED000E8004B08673DE90068088600690887005C
:100EE000650881008C30E5002130E6004A0865077E
:100EF00086004B08663D870023300106031D812FC5
:100F0000822F862F0B30CA000030CB000130CA0779
:100F10000030CB3D4B08803AE50080306502031D70
:100F2000932F0A304A02031C962F972F552F8C308F
:100F300086002130870042300106031DA02FA22F1A
:100F40008B31CC2B8C3086002130870041314C30E6
:100F50000106031DAC2FAD2FA02F8C308600213051
:100F60008700423159300106031DB72FB82FA02F3B
:100F70008C3086002130870043314E300106031D3E
:100F8000C22FC32FA02F8C30860021308700443120
:100F90004B300106031DCD2FCE2FA02F8C308600A5
:100FA0002130870045312A300106031DD82FD92F63
:100FB000A02F8C3086002130870046312330010677
:100FC0000319E32FE42F3A2FA02F803102288C3011
:100FD0008400213085006430FE000030FF008A313B
:100FE0001C22873120308400003085003530FE001F
:100FF0000030FF008A311C22873120008B31C12B49
:1013E20016302100970008002000110E890C0139E7
:1013F200080071082000EB007008EA00080071087C
:101402002000EF007008EE00080071082000ED00D7
:101412007008EC0008005830210099002200960163
:101422000800F0002000111E172A182A132A70083B
:1014320023009A0008006400800101310130FE029D
:101442000030FF3B7F087E04031D1D2A00348A31D1
:101452007E228A318A310C228A318931F1218A3104
:101462008B3177238A3108002000911E392A3A2ACB
:10147200352ACC0123009D1C3F2A402A422A1D12F4
:101482001D1619080800F0012000111E492A4A2AD7
:10149200512A23009E1E4E2A4F2A512AF001F00A99
:1014A200700808006430FD007D082000E400630835
:1014B200DB006208DA006430FD007D08DC000030E9
:1014C2008B3199238A3108008A3197228A318A31F5
:1014D200B3228A318A31CF228A318A31EB228A3190
:1014E2008B3107238A318B3123238A318B313F237E
:1014F2008A318B315B238A31080022008C018D01F5
:101502008E013F3021008C0070308D008E01CF3073
:1015120023008E0010308D0017308C0024008D01C6
:101522008C012100951722009D0108002000540320
:10153200031D9C2A9D2AA92A22000E101130F000B8
:101542003A30890BA22AF00BA22A003222000E1492
:10155200023020005406031DAF2AB02AB22A22000C
:101562000E10080020005303031DB82AB92AC52A09
:1015720022008E101130F0003A30890BBE2AF00B97
:10158200BE2A003222008E14023020005306031DB0
:10159200CB2ACC2ACE2A22008E1008002000520329
:1015A200031DD42AD52AE12A22000E111130F0009F
:1015B2003A30890BDA2AF00BDA2A003222000E15B1
:1015C200023020005206031DE72AE82AEA2A2200F6
:1015D2000E11080020005103031DF02AF12AFD2AF2
:1015E20022008E111130F0003A30890BF62AF00BEE
:1015F200F62A003222008E15023020005106031D09
:10160200032B042B062B22008E110800200050030E
:10161200031D0C2B0D2B192B22000E121130F00082
:101622003A30890B122BF00B122B003222000E16CD
:10163200023020005006031D1F2B202B222B2200DC
:101642000E12080020004F03031D282B292B352BD7
:1016520022008E121130F0003A30890B2E2BF00B43
:101662002E2B003222008E16023020004F06031D60
:101672003B2B3C2B3E2B22008E12080020004E03F7
:10168200031D442B452B512B22000E131130F00069
:101692003A30890B4A2BF00B4A2B003222000E17EC
:1016A200023020004E06031D572B582B5A2B2200C6
:1016B2000E13080020004D03031D602B612B6D2BC0
:1016C20022008E131130F0003A30890B662BF00B9A
:1016D200662B003222008E17023020004D06031DB9
:1016E200732B742B762B22008E13080008302300F4
:1016F2009F0090309D0024309E0019309B009C0179
:101702000030F0000030F1008A3100228B310030CD
:10171200F0000030F1008A3106228B310030F000F7
:101722000030F1008931FA218B312000CC01080010
:101732002000DF005B08E1005A08E000C001C1019F
:10174200B32B6030DD005D08FA005C08DE005E0845
:10175200FB005F08803153208B317A082000C007DC
:101762007B08C13D60088400610885001200031DEA
:10177200BB2BBC2BA22B4108DB004008DA0008007F
:101782008A3128228B3100302000E2009030E300C1
:101792008A3153228B31200048084904031DD22B81
:1017A200D32B1B2CCA01CB01D92B8A3165228B3159
:1017B2008931F5218B31003A0319E02BE12BD62B2D
:1017C2008A3135228B312000E5008C30E600213051
:1017D200E7004A086607E8004B08673DE900680829
:1017E200860069088700650881008C30E500213099
:1017F200E6004A08650786004B08663D87002330ED
:101802000106031D052C062C0A2C0B30CA000030E1
:10181200CB000130CA070030CB3D4B08803AE500CF
:1018220080306502031D172C0A304A02031C1A2C51
:101832001B2CD92B8C308600213087004F300106BB
:10184200031D242C252C572C8C3086002130870038
:1018520041314E300106031D2F2C302C572C8C3079
:10186200860021308700423130300106031D3A2CB8
:101872003B2C572C8C30860021308700433131308D
:101882000106031D452C462C572C8C308600213036
:101892008700443123300106031D502C512C572C54
:1018A20022000E142000D401C801C9018C30860028
:1018B200213087004F300106031D602C612C932CD0
:1018C2008C3086002130870041314E300106031DE5
:1018D2006B2C6C2C932C8C3086002130870042318B
:1018E20030300106031D762C772C932C8C30860029
:1018F20021308700433132300106031D812C822CB6
:10190200932C8C308600213087004431233001062D
:10191200031D8C2C8D2C932C22008E142000D301BD
:10192200C801C9018C308600213087004F30010682
:10193200031D9C2C9D2CCF2C8C30860021308700DF
:1019420041314E300106031DA72CA82CCF2C8C3020
:10195200860021308700423130300106031DB22C4F
:10196200B32CCF2C8C3086002130870043313330AA
:101972000106031DBD2CBE2CCF2C8C3086002130DD
:101982008700443123300106031DC82CC92CCF2CFB
:1019920022000E152000D201C801C9018C30860038
:1019A200213087004F300106031DD82CD92C0B2D76
:1019B2008C3086002130870041314E300106031DF4
:1019C200E32CE42C0B2D8C30860021308700423131
:1019D20030300106031DEE2CEF2C0B2D8C308600CF
:1019E20021308700433134300106031DF92CFA2CD3
:1019F2000B2D8C30860021308700443123300106C4
:101A0200031D042D052D0B2D22008E152000D10162
:101A1200C801C9018C308600213087004F30010691
:101A2200031D152D8E318B2E8E31BD2E8C308600EE
:101A320021308700413146300106031D212D222D20
:101A4200572D8C3086002130870042314630010606
:101A5200031D2C2D2D2D572D8C3086002130870013
:101A6200433130300106031D372D382D572D8C3070
:101A7200860021308700443132300106031D422D99
:101A8200432D572D8C30860021308700453123307D
:101A92000106031D4D2D4E2D572D22008E100230B2
:101AA2002000E5006508D300C801C9018C3086001A
:101AB200213087004F300106031D602D612DA12DBD
:101AC2008C30860021308700413146300106031DEB
:101AD2006B2D6C2DA12D8C30860021308700423178
:101AE20046300106031D762D772DA12D8C30860000
:101AF20021308700433130300106031D812D822DB4
:101B0200A12D8C308600213087004431333001060C
:101B1200031D8C2D8D2DA12D8C3086002130870048
:101B2200453123300106031D972D982DA12D22004A
:101B32000E1102302000E5006508D200C801C9017B
:101B42008C308600213087004F300106031DAA2DFC
:101B5200AB2DEB2D8C308600213087004131463091
:101B62000106031DB52DB62DEB2D8C3086002130DC
:101B72008700423146300106031DC02DC12DEB2DD9
:101B82008C30860021308700433130300106031D3E
:101B9200CB2DCC2DEB2D8C308600213087004431AB
:101BA20034300106031DD62DD72DEB2D8C30860047
:101BB20021308700453123300106031DE12DE22D3E
:101BC200EB2D22008E1102302000E5006508D100C5
:101BD200C801C9018C308600213087004F300106D0
:101BE200031DF42DF52D352E8C3086002130870013
:101BF200413146300106031DFF2D002E352E8C305B
:101C0200860021308700423146300106031D0A2E2C
:101C12000B2E352E8C308600213087004331303038
:101C22000106031D152E162E352E8C30860021300E
:101C32008700443135300106031D202E212E352E1A
:101C42008C30860021308700453123300106031D88
:101C52002B2E2C2E352E22000E1202302000E500F3
:101C62006508D000C801C9018C3086002130870088
:101C72004F300106031D3E2E3F2E7F2E8C308600F4
:101C820021308700413146300106031D492E4A2E7C
:101C92007F2E8C308600213087004231463001068B
:101CA200031D542E552E7F2E8C3086002130870046
:101CB200433130300106031D5F2E602E7F2E8C30A3
:101CC200860021308700443136300106031D6A2E1A
:101CD2006B2E7F2E8C3086002130870045312330D9
:101CE2000106031D752E762E7F2E22008E120230E3
:101CF2002000E5006508CF00C801C9018C308600CC
:101D0200213087004F300106031D892E8031CD28F6
:101D120081310D298C3086002130870041314E30CF
:101D22000106031D952E962EBD2E8C308600213085
:101D32008700423130300106031DA02EA12EBD2E98
:101D42008C30860021308700433135300106031D77
:101D5200AB2EAC2EBD2E8C30860021308700443154
:101D620023300106031DB62EB72EBD2E22000E16FD
:101D72002000D001C801C9018C30860021308700C3
:101D82004F300106031DC62EC72EF92E8C30860059
:101D92002130870041314E300106031DD12ED22E53
:101DA200F92E8C3086002130870042313030010616
:101DB200031DDC2EDD2EF92E8C30860021308700AB
:101DC200433136300106031DE72EE82EF92E8C3002
:101DD200860021308700443123300106031DF22E94
:101DE200F32EF92E22008E162000CF01C801C90160
:101DF2008C308600213087004F300106031D022FF0
:101E0200032F352F8C3086002130870041314E3030
:101E12000106031D0D2F0E2F352F8C308600213029
:101E22008700423130300106031D182F192F352F3C
:101E32008C30860021308700433137300106031D84
:101E4200232F242F352F8C308600213087004431F8
:101E520023300106031D2E2F2F2F352F22000E17A0
:101E62002000CE01C801C9018C30860021308700D4
:101E72004F300106031D3E2F3F2F712F8C308600FD
:101E82002130870041314E300106031D492F4A2F70
:101E9200712F8C30860021308700423130300106AC
:101EA200031D542F552F712F8C308600213087004F
:101EB200433138300106031D5F2F602F712F8C30A4
:101EC200860021308700443123300106031D6A2F2A
:101ED2006B2F712F22008E172000CD01C801C9017E
:101EE2008C308600213087004F300106031D7A2F87
:101EF2007B2FAA2F8C3086002130870041314E3053
:101F02000106031D852F862FAA2F8C3086002130D3
:101F1200870042312A300106031D902F912FAA2FEC
:101F22008C30860021308700433123300106031DA7
:101F32009B2F9C2FAA2FFF3022008E002000D4015D
:101F4200D301D201D101D001CF01CE01CD01C8010F
:101F5200C9018C308600213087004F300106031DF5
:101F6200B32FB42FF42F8C308600213087004131FB
:101F720046300106031DBE2FBF2FF42F8C30860082
:101F820021308700423146300106031DC92FCA2F76
:101F9200F42F8C3086002130870043313030010627
:101FA200031DD42FD52FF42F8C30860021308700CB
:101FB200443131300106031DDF2FE02FF42F8C3026
:101FC200860021308700453123300106031DEA2FA8
:101FD200EB2FF42F22000E1002302000E5006508DE
:101FE200D400C801C9018C308600213087004F30EF
:101FF2000106031DFE2F8D31172D8D31572D5034C3
:102002006C3465346134733465342034773472341B
:10201200693474346534203463346F346E34743408
:1020220072346F346C34203463346F346D346D34F5
:0E20320061346E34643420343A342034003487
:020000040001F9
:08000000FF3FFF3FFF3FFF3F00
:04000E00E43FFF3F8D
:00000001FF
