:08000000803102288731F12F45
:100BC200013416302100970008002000110E890C14
:100BD2000139080022000E108E140E110C160800A6
:100BE20022000E148E100E150C1208007908200037
:100BF200A1007808A000080079082000A500780864
:100C0200A400080079082000A3007808A2000800C8
:100C120022000E108E100E110C12080022000E146B
:100C22008E100E110C16080022000E108E140E15D6
:100C32000C120800583021009900980122009601F8
:100C42000800FF3020009B009A01911004309C00A4
:100C520008003C3026009300FF3091009201CF3013
:100C620025009E0508003C3026009A00FF309800BF
:100C720099013F3025009E0508004D30280096005E
:100C820095012000931007302800970008002000EB
:100C9200911E4C2E4D2E482EF70123009D1C522EE4
:100CA200532E552E1D121D16190808003C30250022
:100CB2009300950180309400013096009201033038
:100CC20091001E08FC3901389E0008003C302500C6
:100CD2009A009C0180309B0001309D0099010330F5
:100CE20098001E08F33904389E0008007908FB00BA
:100CF2007808FA00FB36FA0CFB36FA0C7A08250063
:100D0200910078080339FA000430FA35890B862EEF
:100D12001308CF397A04930008007908FB00780899
:100D2200FA00FB36FA0CFB36FA0C7A08250098001A
:100D320078080339FA000430FA35890B9D2E1A0817
:100D4200CF397A049A0008007908FB007808FA0083
:100D5200FB36FA0CFB36FA0C7A082600910078086A
:100D62000339FA000430FA35890BB42E1308CF394F
:100D72007A04930008007908FB007808FA00FB3631
:100D8200FA0CFB36FA0C7A08260098007808033928
:100D9200FA000430FA35890BCB2E1A08CF397A04BF
:100DA2009A00080022008C018D018E012B30210057
:100DB2008C00F0308D0090308E00473023008E0082
:100DC2008D0117308C0024008D018C018E012100D1
:100DD200951722009D019E0108008631D326863197
:100DE20086311B2686318531E2258631863167269A
:100DF200863186315726863186313E2686318631C6
:100E02003426863186312A2686318631222686315B
:100E120087310D2786310800083023009F0090306B
:100E22009D0024309E0019309B009C010030F80088
:100E32000030F9008531FD2587310030F80000309F
:100E4200F9008631032687310030F8000030F900BE
:100E52008531F7258731F70108008631EE26873183
:100E62009030F8000130F9008631A5268731C23072
:100E7200F8000130F9008631BC2687310F30F800C6
:100E82000030F9008631772687311E30F8000030B5
:100E9200F90086318E2687317D03031D512F522F93
:100EA200A82F8531E6258731003A0319592F5A2F89
:100EB200522F863148268731FC007C08F6005330D9
:100EC2007606031D652F662F692F86310926873125
:100ED20046307606031D6E2F6F2F722F8531F12556
:100EE200873147307606031D772F782F7B2F853188
:100EF200EB25873152307606031D802F812F842FF8
:100F020086310F2687314C307606031D892F8A2FB2
:100F12008D2F86311526873158307606031D922F84
:100F2200932F942FFD0144307606031D992F9A2F9B
:100F3200A82F0E30F8000030F9008631772687316D
:100F42001E30F8000030F90086318E2687317D0888
:100F5200031DAC2FAD2F4D2F20000D1EB12FB22F30
:100F6200DA2F8E1FB52FB62FB92F8531F125873194
:100F720020000D1BBD2FBE2FC62F0D1FC12FC22F4C
:100F8200C92F8E1FC52FC62FC92F8631152687312F
:100F920020000E1ACD2FCE2FD62F0E1ED12FD22FDC
:100FA200EE2F8E1FD52FD62FEE2F86310F268731AB
:100FB2004D2F8631092687311E30F8000030F900A6
:100FC2008631772687310E30F8000030F9008631FD
:100FD2008E268731FD01FD0A4D2F4D2F80310228CB
:100FE2008531E1258731FD00F001F101F201F301C4
:0E0FF200F401F501F601F701200087312E2FE2
:020000040001F9
:08000000FF3FFF3FFF3FFF3F00
:04000E00E43FFF3E8E
:00000001FF
