:08000000803102288731FD2F39
:100A980022008E107508F1007408F00085316F256A
:100AA8008531080022008E147508F1007408F000E2
:100AB80085316F25853108007A08F7007908F60036
:100AC8008631D52685310130F0000030F1008531BE
:100AD8006F2585310800F201F301F201F3017B2D46
:100AE80022000E140E100130F2070030F33D710899
:100AF8007302031D812D70087202031C842D852D3D
:100B0800742D0800F201F301F201F301922D220085
:100B18000E150E110130F2070030F33D7108730213
:100B2800031D982D70087202031C9B2D9C2D8B2D84
:100B380008007A08F7007908F6008631D52685314D
:100B48000130F0000030F1008531862585311730FD
:100B5800FB00B930890BAE2DFB0BAE2D0000080051
:100B6800F601F31FB82DB92DC02DF209F309F20AC9
:100B78000319F30AF601F60AF11FC32DC42DC92D76
:100B8800F009F109F00A0319F10A70087104031950
:100B9800CE2DCF2DF82DF501F50ADB2D0130F035DE
:100BA800F10D890BD32D0130F4007408F507F11FFE
:100BB800DE2DDF2DD22D71087302031DE52D70087F
:100BC8007202031CE82DE92DED2D7008F202710860
:100BD800F33B0130F136F00C890BEE2D0130F502B4
:100BE800031DF72DF82DDF2D76080319FC2DFD2D9B
:100BF800022EF209F309F20A0319F30A7308F10045
:100C08007208F0000800F601F11F0B2E0C2E132EAF
:100C1800F009F109F00A0319F10AF601F60AF31FBF
:100C2800162E172E202EF209F309F20A0319F30AD9
:100C38000130F4007408F606F701F8017008710431
:100C48000319272E282E572EF501F50A342E0130C8
:100C5800F035F10D890B2C2E0130F4007408F507DE
:100C6800F11F372E382E2B2E0130F735F80D890B52
:100C7800392E71087302031D432E70087202031C7B
:100C8800462E472E4C2E7008F2027108F33B77145B
:100C98000130F136F00C890B4D2E0130F502031DA1
:100CA800562E572E382E760803195B2E5C2E612E91
:100CB800F709F809F70A0319F80A7808F10077081C
:100CC800F000080021000E108E100E1122000E10E8
:100CD8008E100E113B302000A0000030A1003B30E8
:100CE800A2000030A3000A30F0000030F100230811
:100CF800F3002208F2008531B42586317108FA0024
:100D08007008F9008531602586310A30F00000301E
:100D1800F10020002308F3002208F200863107269C
:100D280086317108FA007008F9008531602586312E
:100D38000A30F0000030F10020002108F3002008FC
:100D4800F2008531B42586317108FA007008F9007F
:100D58008531602586310A30F0000030F10020002E
:100D68002108F3002008F200863107268631710831
:100D7800FA007008F90085319D258631FF30200082
:100D8800A207FF30A33DA31FCA2ECB2E772EFF301C
:100D9800A007FF30A13DA11FD22ED32E732E803184
:100DA800022876087704031DDA2EDB2EEA2E01309E
:100DB800F4000030F5008531562586310630F40000
:100DC8000030F50085314C258631FC2F76037704F9
:100DD800031DEF2EF02E062F0430F4000030F5002E
:100DE8008531562586310230F4000030F500853112
:100DF8004C2586310130F4000030F5008531562548
:100E08008631FC2F023076067704031D0C2F0D2F38
:100E1800312F0130F4000030F50085314C25863142
:100E28000130F4000030F500853156258631023056
:100E3800F4000030F50085314C2586310130F4008E
:100E48000030F5008531562586310230F400003037
:100E5800F50085314C258631FC2F03307606770462
:100E6800031D372F382F4E2F0130F4000030F500C6
:100E780085314C2586310230F4000030F50085318B
:100E8800562586310430F4000030F50085314C25B4
:100E98008631FC2F043076067704031D542F552F16
:100EA800722F0230F4000030F50085314C25863170
:100EB8000230F4000030F5008531562586310230C5
:100EC800F4000030F50085314C2586310130F400FE
:100ED8000030F500853156258631FC2F0530760621
:100EE8007704031D782F792F9D2F0230F4000030EE
:100EF800F50085314C2586310130F4000030F500CD
:100F08008531562586310230F4000030F5008531F0
:100F18004C2586310130F4000030F5008531562526
:100F280086310130F4000030F50085314C258631DA
:100F3800FC2F063076067704031DA32FA42FBA2FA3
:100F48000530F4000030F50085314C25863101303C
:100F5800F4000030F5008531562586310130F40063
:100F68000030F50085314C258631FC2F0730760698
:100F78007704031DC02FC12FD02F0430F400003098
:100F8800F5008531562586310330F4000030F50030
:100F980085314C258631FC2F083076067704031DF1
:100FA800D62FD72FDF2F0730F4000030F50085311A
:100FB8004C258631FC2F093076067704031DE52F72
:100FC800E62FFC2F0230F4000030F50085314C2567
:100FD80086310130F4000030F50085315625863120
:100FE8000430F4000030F50085314C258631FC2FA3
:080FF800080020008631662E7E
:020000040001F9
:08000000FF3FFF3FFF3FFF3F00
:04000E00A409FF1D25
:00000001FF
