:08000000803102288731EF2F47
:100C3800FE0012001E00FE0B1D2E0034C034F934D5
:100C4800A434B03499349234823478348034903473
:100C580000340034003400340034003400340034EC
:100C6800003400347808790403193B2E3C2E652E95
:100C7800FD01FD0A482E0130F835F90D890B402E8B
:100C88000130FC007C08FD07F91F4B2E4C2E3F2E2F
:100C980079087B02031D522E78087A02031C552E10
:100CA800562E5A2E7808FA027908FB3B0130F9369D
:100CB800F80C890B5B2E0130FD02031D642E652E96
:100CC8004C2E7B08F9007A08F8000800F501F601B7
:100CD800700871040319712E722EA12EF701F70AFC
:100CE8007E2E0130F035F10D890B762E0130F4009F
:100CF8007408F707F11F812E822E752E0130F53505
:100D0800F60D890B832E71087302031D8D2E700852
:100D18007202031C902E912E962E7008F202710812
:100D2800F33B75140130F136F00C890B972E013026
:100D3800F702031DA02EA12E822E7608F100750859
:100D4800F00008002000B301B40121008E150E1038
:100D58008E100E110E128E160E1714302000A000E1
:100D68000030A10087312A27863120008E1EBD2E33
:100D7800BE2EB92E8E19C12EC22ECC2E33083404A5
:100D8800031DC72EC82ECC2E0130B3000030B4008E
:100D98008E1DCF2ED02EDA2E33033404031DD52E0C
:100DA800D62EDA2E0230B3000030B4008E19DD2EB4
:100DB800DE2EE92E023033063404031DE42EE52E20
:100DC800E92E0330B3000030B40003303306340496
:100DD800031DEF2EF02E052F4908013EB100310802
:100DE800C90022000E1621302000B1007630890B90
:100DF800FB2EB10BFB2E00002000B301B401220032
:100E08000E1204302000B1003D30890B092FB10BC0
:100E1800092F003220004908B100B2013108A000B2
:100E28003208A10087312A27863120000E1F1D2F86
:100E38001E2FB92EC901B301B4010030A000A100D2
:100E480087312A278631B92E803102288030200048
:100E5800A2002208B0000A30F8000030F90021088A
:100E6800FB002008FA0086313626873179082000F1
:100E7800A5007808A4000A30F8000030F9000A300C
:100E8800F0000030F1002108F3002008F20086315C
:100E98006A2687317108FB007008FA008631362609
:100EA800873179082000A7007808A6006430F00090
:100EB8000030F1002108F3002008F20086316A268C
:100EC800873171082000A9007008A8002408353E61
:100ED800860087010108A200A3012208AA002308AE
:100EE800AB002608353E860087010108A200A30151
:100EF8002208AC002308AD002808353E860087018B
:100F08000108A200A3012208AE002308AF00CA010D
:100F18002A083005A20022083006031D942F952FB9
:100F2800982F22008E149A2F22008E100E140E1065
:100F380020002A35AA002B0DAB000130A2002208A0
:100F4800CA0708304A02031CAA2FAB2F8C2FCA01EC
:100F58002C083005A20022083006031DB42FB52F37
:100F6800B82F22008E14BA2F22008E100E140E10E5
:100F780020002C35AC002D0DAD000130A200220858
:100F8800CA0708304A02031CCA2FCB2FAC2FCA014C
:100F98002E083005A20022083006031DD42FD52FB5
:100FA800D82F22008E14DA2F22008E100E140E1065
:100FB80020002E35AE002F0DAF000130A200220810
:100FC800CA0708304A02031CEA2FEB2FCC2F220055
:100FD8000E150E1108002230840086308500353049
:100FE800860000308700143086311C268731C901FD
:080FF800CA0120008631A62E7B
:020000040001F9
:08000000FF3FFF3FFF3FFF3F00
:04000E00A709FF1D22
:00000001FF
