:04000000A9EFFEF076
:020000040001F9
:10FD3E00C000F900A400B000990092008200F80003
:10FD4E00800090003E0EF66EFD0EF76E010EF86E00
:10FD5E0000EE22F010EE14F00900F5CFEEFFE550A4
:10FD6E00E150FAE1000176EFFFF0000E066E02BEE2
:10FD7E00C5EFFEF0C3EFFEF0CBEFFEF0016C021EFE
:10FD8E00D8B0022A010E066E04BED2EFFEF0D0EFFE
:10FD9E00FEF0D6EFFEF0036C041ED8B0042A03501A
:10FDAE000410D8B4DDEFFEF0DFEFFEF003EFFFF04E
:10FDBE00010E056EE7EFFEF0D89003360436052AE5
:10FDCE0004AEECEFFEF0EEEFFEF0E3EFFEF00350CC
:10FDDE00015C04500258D8A0F7EFFEF0F9EFFEF0E8
:10FDEE00FDEFFEF00350015E0450025AD89004322B
:10FDFE000332052EEEEFFEF00650D8B409EFFFF0F9
:10FE0E000BEFFFF00FEFFFF0016C021ED8B0022ACD
:10FE1E0001C001F002C002F01200000E066E04BE18
:10FE2E001DEFFFF01BEFFFF023EFFFF0036C041E3E
:10FE3E00D8B0042A010E066E02BE2AEFFFF028EF9C
:10FE4E00FFF030EFFFF0016C021ED8B0022A010E57
:10FE5E00061A000E086E000E076E03500410D8B47A
:10FE6E003BEFFFF03DEFFFF065EFFFF0010E056E8B
:10FE7E0045EFFFF0D89003360436052A04AE4AEF5C
:10FE8E00FFF04CEFFFF041EFFFF0D8900736083649
:10FE9E000350015C04500258D8A058EFFFF05AEFFF
:10FEAE00FFF05FEFFFF00350015E0450025A07802F
:10FEBE00D89004320332052E4CEFFFF00650D8B422
:10FECE006BEFFFF06DEFFFF071EFFFF0076C081EA8
:10FEDE00D8B0082A07C001F008C002F01200000EC8
:10FEEE00926E000E936E000E966E000E956E20EEC4
:10FEFE0022F010EE0AF0130EDBCFE3FFE806FCE271
:10FF0E00000E1F6E3B0E1E6E000E216E3B0E206EFF
:10FF1E001EC001F01FC002F0000E046E0A0E036E2A
:10FF2E00BCECFEF0D890013602360A0E0124D96ED2
:10FF3E00000E0220DA6EDF508D6E1EC001F01FC063
:10FF4E0002F0000E046E0A0E036E14ECFFF0D89051
:10FF5E00013602360A0E0124D96E000E0220DA6E28
:10FF6E00DF508C6E20C001F021C002F0000E046E36
:10FF7E000A0E036EBCECFEF0D890013602360A0E65
:10FF8E000124D96E000E0220DA6EDF50896E20C079
:10FF9E0001F021C002F0000E046E0A0E036E14EC86
:10FFAE00FFF0D890013602360A0E0124D96E000EEB
:10FFBE000220DA6EDF508A6E340E096EF20EE82ED3
:10FFCE00FED7092EFCD72006D8A0210621BEF4EFBD
:10FFDE00FFF0F2EFFFF08FEFFFF01E06D8A01F0626
:10FFEE001FBEFEEFFFF0FCEFFFF08BEFFFF000EF18
:02FFFE0000F011
:020000040020DA
:08000000FFFFFFFFFFFFFFFF00
:020000040030CA
:0E0000001C087F7F018990FFFFC0FFE0FF40DA
:00000001FF
