:08000000803102288731FD2F39
:100E2200F600FA300032890B132FF001F00A76082F
:100E320087316C2787317608F4000330F435FF3EA2
:100E4200031D1F2F7435F5007508F600F001F00A36
:100E5200760887316C2787310800F600FA300032B5
:100E6200890B302FF001760887316C27873176089D
:100E7200F4000330F435FF3E031D3B2F7435F500BB
:100E82007508F6005330890B442F0000F0017608F4
:100E920087316C278731080087318C278731F7012A
:100EA20001308731AC2787310030F7008830F800F5
:100EB2008731D3278731F701F70A04308731AC270E
:100EC20087310F30F7008830F8008731D327873118
:100ED200692F80310228F3007308F1000430F136E3
:100EE200890B702F7108F2007208F30073080F3932
:100EF200F1007108F30020000E08F0398E000E0890
:100F020073048E00700C031C0E1203180E168E1240
:100F12000E170E13080020008E0121008E010530ED
:100F2200F700DE30890B932FF70B932F3230873186
:100F32002E278731283087312E2787310C30873191
:100F42002E278731013087312E27873106308731AE
:100F52002E2787310800FA00023077020318B22FD9
:100F6200B32FD22F10307A02031CB82FB92FBA2F09
:100F7200D22F77030319BE2FBF2FC52F80307A04DB
:100F8200F8000030F900CA2FC0307A04F8000030AF
:100F9200F900780887312E278731FA300032890B21
:100FA200CF2F0800FD01EC2F7D08F9007908FC0025
:100FB2000130F9007908FD077808FA007708F9008E
:100FC2007C08790784007A0803187A0A85000008E9
:100FD2008731112787317808FA007708F9007D08F0
:100FE200790784007A0803187A0A85001200031D23
:100FF200FB2FFC2FD52F0800200087314D2F5034B6
:10100200493443343134363446343134353430346F
:10101200393420344D34433455340034323433348B
:0E1022003A34353439343A3430343034003412
:020000040001F9
:08000000FF3FFF3FFF3FFF3F00
:04000E00A409FF1D25
:00000001FF
