:08000000803102288731FD2F39
:100DC2008030F0007008F3002030F0007008F4006A
:100DD200F101740822008D007436F0007008F400EE
:100DE2001130F0003A30890BF42EF00BF42E003261
:100DF200740822008D000130F0007008F107023003
:100E02007102031C052F062FEA2EF20173088E00D1
:100E12007336F0007008F3001130F0003A30890B9D
:100E2200102FF00B102F0032730822008E000130B9
:100E3200F0007008F20708307202031C212F222FE3
:100E4200072F08008030F0007008F3002030F00017
:100E52007008F400F101740822008D0074367404E5
:100E6200F0007008F4001130F0003A30890B372F8F
:100E7200F00B372F00320130F0007008F10702301A
:100E82007102031C452F462F2C2FF20173082200FA
:100E92008E0073367304F0007008F3001130F00016
:100EA2003A30890B522FF00B522F00320130F000F2
:100EB2007008F20708307202031C602F612F472F5F
:100EC20022008D018E010D30F000FC30890B672F5E
:100ED200F00B672F080021008E018D0122008D0189
:100EE2008E0123008C0121000C148C140C15F601C8
:100EF200F7017608031D7E2F7F2F862F20000C1806
:100F0200832F842F862FF601F60A7603031D8A2F7C
:100F12008B2F942F20000C1C8F2F902F942F023098
:100F2200F5007508F60002307606031D992F9A2FF8
:100F3200A32F20000C189E2F9F2FA32F0330F50004
:100F42007508F6007708031DA72FA82FAF2F2000E2
:100F52008C18AC2FAD2FAF2FF701F70A7703031DC3
:100F6200B32FB42FBD2F20008C1CB82FB92FBD2F4B
:100F72000230F5007508F70002307706031DC22F14
:100F8200C32FCC2F20008C18C72FC82FCC2F033093
:100F9200F5007508F70002307606031DD12FD22F17
:100FA200D52F22008D018E0103307606031DDA2F24
:100FB200DB2FDE2F8631E126873102307706031DD3
:100FC200E32FE42FE72F22008D018E0103307706F5
:100FD200031DEC2FED2FF02F8731232787312000BF
:100FE2000C1DF42FF52F7A2F22008D018E01F601B0
:0E0FF200F7017A2F80310228200087316C2F02
:020000040001F9
:08000000FF3FFF3FFF3FFF3F00
:04000E00A409FF1D25
:00000001FF
