:04000000DFEFFEF040
:020000040001F9
:10FDAA00C000F900A400B000990092008200F80097
:10FDBA0080009000AA0EF66EFD0EF76E010EF86E28
:10FDCA0000EE20F010EE14F00900F5CFEEFFE5503A
:10FDDA00E150FAE10001F2EFFEF0000E926E000E21
:10FDEA00956E20EE20F010EE0AF0130EDBCFE3FF43
:10FDFA00E806FCE2000E1F6E000E1E6E1EC001F029
:10FE0A001FC002F0000E046E0A0E036E9EECFFF095
:10FE1A00D890013602360A0E0124D96E000E02204D
:10FE2A00DA6EDF508C6E1EC001F01FC002F0000EA9
:10FE3A00046E0A0E036E46ECFFF0D89001360236C5
:10FE4A000A0E0124D96E000E0220DA6EDF50896E86
:10FE5A005B0E096EE80EE82EFED7092EFCD71E4A65
:10FE6A001F2A1FBE42EFFFF01F5009E1640E1E5CFD
:10FE7A00D8A042EFFFF044EFFFF003EFFFF000EFEE
:10FE8A0000F0000E066E02BE4FEFFFF04DEFFFF0DE
:10FE9A0055EFFFF0016C021ED8B0022A010E066E61
:10FEAA0004BE5CEFFFF05AEFFFF060EFFFF0036C67
:10FEBA00041ED8B0042A03500410D8B467EFFFF028
:10FECA0069EFFFF08DEFFFF0010E056E71EFFFF0A5
:10FEDA00D89003360436052A04AE76EFFFF078EFA1
:10FEEA00FFF06DEFFFF00350015C04500258D8A0F8
:10FEFA0081EFFFF083EFFFF087EFFFF00350015E21
:10FF0A000450025AD89004320332052E78EFFFF0DB
:10FF1A000650D8B493EFFFF095EFFFF099EFFFF09A
:10FF2A00016C021ED8B0022A01C001F002C002F020
:10FF3A001200000E066E04BEA7EFFFF0A5EFFFF059
:10FF4A00ADEFFFF0036C041ED8B0042A010E066E52
:10FF5A0002BEB4EFFFF0B2EFFFF0BAEFFFF0016CB0
:10FF6A00021ED8B0022A010E061A000E086E000EF2
:10FF7A00076E03500410D8B4C5EFFFF0C7EFFFF0C7
:10FF8A00EFEFFFF0010E056ECFEFFFF0D8900336CA
:10FF9A000436052A04AED4EFFFF0D6EFFFF0CBEF1C
:10FFAA00FFF0D890073608360350015C0450025817
:10FFBA00D8A0E2EFFFF0E4EFFFF0E9EFFFF0035023
:10FFCA00015E0450025A0780D89004320332052E8B
:10FFDA00D6EFFFF00650D8B4F5EFFFF0F7EFFFF0D9
:10FFEA00FBEFFFF0076C081ED8B0082A07C001F023
:06FFFA0008C002F0120035
:020000040020DA
:08000000FFFFFFFFFFFFFFFF00
:020000040030CA
:0E0000001C087F7F018990FFFFC0FFE0FF40DA
:00000001FF
