:08000000803102288731F12F45
:100E6A00FE0012001E00FE0B362F003470340034D0
:100E7A0000340034B034003490340034C0340034C8
:100E8A00D0340034F034003400340034F034003408
:100E9A00D034003434340034303400341434003460
:100EAA0034340034303400342434003424340034EC
:100EBA003434003434340034343400343F340034AD
:100ECA00063400345B3400344F3400346634003462
:100EDA006D3400347D340034073400347F340034F8
:100EEA006F34003421008E018C018D01C8308600D8
:100EFA000030870020308400003085001430F00074
:100F0A0016001A00F00B852FB430860000308700D7
:100F1A0034308400003085001430F00016001A00C6
:100F2A00F00B932FA03086000030870048308400F1
:100F3A00003085001430F00016001A00F00BA12FC3
:100F4A002000DC01DD0120005C35203E860087019F
:100F5A00010822008E002000DE01DF0120005E353C
:100F6A00343E86008701010822008C0020005E358D
:100F7A00483E86008701010822008D001E30F000DD
:100F8A003730890BC62FF00BC62F00000130200026
:100F9A00DE070030DF3D5F08803AF00080307002E3
:100FAA00031DD92F0A305E02031CDC2FDD2FB32F5D
:100FBA0001302000DC070030DD3D5D08803AF0009A
:100FCA0080307002031DEB2F0A305C02031CEE2FE7
:100FDA00EF2FA82F803102283B308400873085000C
:100FEA00A0308600003087003C30873135278731B2
:060FFA0020008731772F73
:020000040001F9
:08000000FF3FFF3FFF3FFF3F00
:04000E00E409FF1DE5
:00000001FF
