:08000000803102288731FD2F39
:100D2E007108F4007008F300A02E0130F0070030B7
:100D3E00F13D70088400710885001200031DA82E75
:100D4E00A92E9C2E73087002F0007408713BF100FE
:100D5E0008008731252786310030F7008830F800EB
:100D6E00F901F90AFA018731452786310F30F7006C
:100D7E008830F800F901F90A87319F278631C62E8F
:100D8E0080310228F600FA300032890BCB2EF001AA
:100D9E00F00A76088731052786317608F40003308D
:100DAE00F435FF3E031DD72E7435F5007508F60099
:100DBE00F001F00A76088731052786310800F60023
:100DCE00FA300032890BE82EF001760887310527BC
:100DDE0086317608F4000330F435FF3E031DF32E02
:100DEE007435F5007508F6005330890BFC2E0000A3
:100DFE00F00176088731052786310800F300730865
:100E0E00F1000430F136890B092F7108F2007208D7
:100E1E00F30073080F39F1007108F30020000E087B
:100E2E00F0398E000E0873048E00700C031C0E1227
:100E3E0003180E168E120E170E13080020008E01C8
:100E4E0021008E010530F700DE30890B2C2FF70BB9
:100E5E002C2F32308631E626873128308631E62631
:100E6E0087310C308631E626873101308631E62611
:100E7E00873106308631E626873108007908FB0077
:100E8E007B082000A5007A08FB007B08A300023037
:100E9E0023020318532F542F9E2F10302502031CAC
:100EAE00592F5A2F5B2F9E2F230303195F2F602F6D
:100EBE00662F80302504A0000030A1006B2FC030BB
:100ECE002504A0000030A10020088631E6268731D7
:100EDE00FA300032890B702F2000A4018D2F2408C8
:100EEE00FB007B08A2000130FB007B08A4077808FA
:100EFE00FC007708FB0022087B0784007C0803189F
:100F0E007C0A850000088631C92687317808FC00E6
:100F1E007708FB00200024087B0784007C08031858
:100F2E007C0A85001200031D9D2F9E2F762F080030
:100F3E007808F1007708F00086319726873170081F
:100F4E00FA007108FB00FB36FA0C7A08083CFC002C
:100F5E007C082000A2007908FA007A08A30002306B
:100F6E002302031CBB2FBC2FBD2FFC2F2303031901
:100F7E00C12FC22FC82F80302204A0000030A10044
:100F8E00CD2FC0302204A0000030A10020088631F1
:100F9E00E6268731FA300032890BD22F2000A401C9
:100FAE00EC2F7808FB007708FA0024087A078400F3
:100FBE007B0803187B0A850000088631C926873115
:100FCE000130FA007A082000A4077808FB007708A1
:100FDE00FA0024087A0784007B0803187B0A850030
:100FEE001200031DFB2FFC2FD82F08002000863186
:100FFE00B02E5034493443343134363446343134DF
:10100E0035343034393420344D344334553400348F
:10101E00323433343A34353439343A34303430347B
:02102E0000348C
:020000040001F9
:08000000FF3FFF3FFF3FFF3F00
:04000E00A409FF1D25
:00000001FF
